:020000040800F2
:10800000606A002045810008970C0108C5E7000858
:108010000000000000000000000000000000000060
:1080200000000000000000000000000035230108EF
:10803000000000000000000003810008A17A010890
:1080400057810008000000007112010857810008E4
:10805000578100087DA700088DA7000897A7000892
:108060000000000051A5000861A500085781000824
:1080700001980008217C01085781000800000000D9
:1080800057810008317C0108417C0108E97B010827
:108090005781000857810008578100085781000860
:1080A0005781000857810008578100085781000850
:1080B000A1820108B18201080348854601F074F9E4
:1080C0000048004735A60108606A0020084B19687F
:1080D0000868203080F30988022080F31488BFF3F9
:1080E0006F8F3FBCAE4608BC04BC62B618470000A8
:1080F0002C040020EFF3108072B6704780F31088D4
:108100007047EFF309800E4B1A6820381060F0C0FA
:1081100044464D4656465F46F0C008B572B613F069
:10812000F9FA62B60CBC116808681030F0C8A046B5
:10813000A946B246BB4680F309882038F0C81847E4
:108140002C0400200448804704480047FEE7FEE76F
:10815000FEE7FEE7FEE7FEE7757B0108B980000851
:1081600030B50B46014600202022012409E00D46CF
:10817000D5409D4205D31D469540491B2546954057
:1081800040191546521E002DF1DC30BD70B500249B
:108190002546002801DA01244042002901DA0125A0
:1081A0004942FFF7DDFFAC4200D04042002C00D036
:1081B000494270BD10B5202A04DB0846203AD04061
:1081C000002110BD0B46D340D0402024A21A91407C
:1081D0000843194610BD000000487047D0C501088B
:1081E00010B50446FFF7F8FF0068005DC007C00F38
:1081F00010BD01466139192900D82038704703465F
:108200000B439B0703D009E008C9121F08C0042ACA
:10821000FAD203E00B780370401C491C521EF9D2BD
:108220007047D2B201E00270401C491EFBD2704779
:108230000022F6E710B513460A4604461946FFF732
:10824000F0FF204610BD421E5378521C002BFBD17C
:108250000B781370491C521C002BF9D1704730B5B4
:1082600005462A460B4610781C78521C5B1C0028D9
:1082700001D0A042F7D0002C03D0002802D06D1C02
:10828000EFE7284630BD10B5044605E00B780370D3
:10829000401C002B00D0491C521EF7D2204610BDB6
:1082A000CAB2401E4178401C8A4202D00029F9D14E
:1082B00000207047421C0178401C0029FBD1801A25
:1082C000704710B5002200E0521C835C8C5CA34216
:1082D00001D1002BF8D1D8B2E1B2401A10BD10B5CF
:1082E000044600E0401C0378002BFBD100E0401C5A
:1082F000521E04D30B78491C0370002BF7D10021C8
:108300000170204610BD03460A780270401C491CCB
:10831000002AF9D11846704730B5054600200346BB
:1083200000E05B1C934205D2EC5CC85C201A01D1D2
:10833000002CF6D130BD00000FB400B58DB009900F
:108340000B9010A900200091C0430A9000200C90CF
:1083500006480690064807906A4609A80F9900F05B
:1083600099FE0DB008BC04B018470000B590000895
:10837000D5900008FFB50027FF4383B000205C685C
:1083800001909E681D46A9697F1C0498884700904B
:10839000296A88470028F6D10098401C0CD0032099
:1083A00040028443002E19DD600614D500982B2866
:1083B00009D02D280FD103E00020C04307B0F0BD45
:1083C000012080020443A9697F1C04988847761E17
:1083D0000090002E02DD0098302803D00598002878
:1083E00025D035E0012040020443A969761E7F1C98
:1083F000049888470090002E03DD782805D058287F
:1084000003D00598002810D022E00598002801D05C
:1084100010281DD1012040028443A969761E7F1CCB
:10842000049888470090102002E0082000E00A200D
:1084300005900DE0012149020C43059A0199761E31
:10844000514308180190A9697F1C0498884700903F
:10845000002E05DD0599009800F006FE0028E9DAF7
:10846000E96904988847A00502D40120C043A5E724
:10847000E00722D1600611D56005019800D5404281
:1084800029680A1D2A600968220501D5087014E0D0
:10849000220701D5088010E008600EE02868011D61
:1084A00029600068210502D50199017005E02107C6
:1084B000019901D5018000E0016038467EE7FFB5F3
:1084C000002083B000905068019091691446002606
:1084D00097680498884705460C990698084305D084
:1084E00009E0A169761C049888470546216A284658
:1084F00088470028F5D1681C03D00198C00704D034
:1085000017E00020C04307B0F0BD2068011D2160C6
:10851000006800900DE00198C00704D10098057034
:108520000098401C0090A169761C7F1E0498884723
:108530000546002F1CDD681C1AD0069800280FD0B5
:10854000E817C00E401941118A00069940095118D8
:1085500040012A1A0968012090400142DBD107E05E
:108560000C980028D7D1216A284688470028D2D005
:10857000E169049888470C98002807D1002E05DD92
:108580000198C00702D1009800210170A068B8428C
:1085900004DD0C98002804D0002F02D00120C04335
:1085A000B1E73046AFE70000FFB5087889B015465F
:1085B000FF2805D0491C2D2804D00022002407E004
:1085C00000240BE00122F9E70A235C430419491C4B
:1085D0000878FF28F8D1002A00D0644200200490D7
:1085E0002A7801462D2A01D02B2A0FD16D1C2D2A65
:1085F00002D00022049209E00122FBE700260A22B1
:1086000033466D1C00F0D0FC381871412F78FF2FD5
:10861000F4D10C9AA218069202460A4304D0FF2312
:10862000069A9133DA4205DA002109980A4606C013
:108630000DB0F0BD0024B74AB54D2646079200F0B4
:1086400085FE029006980391002801DA474200E077
:10865000074639050020AF4A001C514101910090A6
:1086600012E0F80707D022462B463046079900F063
:10867000E9FA0646079122462B461046194600F0B5
:10868000E1FA04460D467F10002FEAD10698019BBF
:108690000028009A0399029806DA00F03BFB324664
:1086A000079B00F037FB05E000F0CCFA3246079B51
:1086B00000F0C8FA049A002A02D00122D2075140E1
:1086C000099A03C2B4E7FFB591B0002009900025D4
:1086D000ED432E209E685C681F460190B9696D1CB1
:1086E000129888470090396A88470028F6D1009888
:1086F000401C0AD00D20C0018443002E12DD0098DA
:108700002B2809D02D280DD103E00020C04315B03F
:10871000F0BD012080020443B9696D1C129888479E
:10872000761E009003A9600501D52D2000E02B20C6
:108730006A461073491C0CA80F9102900AE0B969AF
:108740006D1C129888470090012040020443139842
:10875000761E0560002E02DD00983028EFD00199CA
:108760000098884246D18020044308E00998401EC2
:1087700009900120400204431399681C0860B969FC
:108780006D1C761E1298884700903028EED031E09C
:108790000199884205D1200603D480200443761E27
:1087A0001EE0009810F072F8002826D00120400248
:1087B000044307A90F980331761E88420BD2009814
:1087C0000F99303808700F98401C0F90200607D57D
:1087D0000998401E03E0200602D40998401C099025
:1087E000A00502D51399681C0860B9696D1C129820
:1087F00088470090002ECBDC59E0002E57DD009812
:10880000652801D0452852D1A00550D5032000028B
:108810008443B9696D1C761E129888470090002E1B
:108820000CDD2B2804D02D2808D1FF200130044373
:10883000B9696D1C12988847761E0090E00501D535
:108840002D2100E02B21029801700298401C02901B
:10885000019025E00120400204430EA90298013155
:10886000761E88420ED20098029930380006000E1B
:10887000087003D10299019881420AD90298401CDC
:10888000029006E0E00501D5234801E0224840427D
:108890000990B9696D1C129888470090139805607B
:1088A000002E04DD00980FF0F1FF0028D2D1F96905
:1088B000129888470F99FF200870029903AA087040
:1088C00000200A900B900CA90AA8099BFFF76CFEE8
:1088D000A00502D40120C04319E72420044209D096
:1088E000E00713D138680B9A0A99031D3B600068B2
:1088F00006C00BE00B990A9800F0F6FA0146E00773
:1089000004D13868021D3A60006801602846FEE61E
:10891000000014400000F03FF1D8FFFF70B506469C
:108920000FF084FE046805460A220021304600F05C
:1089300035FC2C6070BDF8B502464A40D40F4200A9
:108940004B0052085B089A4202D202460846114682
:108950004A0023D0C30D4A00DDB2120EAD1A202DFD
:1089600035DA49020126490AF6058A19002C00D099
:10897000524220214F1B1146B9402A411018C20D06
:108980009A4221D0002C17D0012D08DCDA05801A7C
:10899000D20F8019D207DBB200F040FCF8BDDA0537
:1089A000801A012340001B06C01880185A42801804
:1089B000CA0F1043490007E04908C2071143DA050E
:1089C000801A80194008801800F020FCF8BD610072
:1089D0000122511A001BF7E70122D2075140AAE7F2
:1089E0000122D2075040A6E7024670B54A40D30F95
:1089F000DB0740002DD04A002AD0010E140E0002E1
:108A000012020919400A520A8418E5010446544327
:108A1000000A120A2E045043A4194219200CC5431F
:108A2000AA18120C0125AD03521C521912047F39E9
:108A3000240400D0521C104301D44000491EC2B28D
:108A40000C06C0092018401C4008802A02D003E010
:108A5000002070BD40084000002900DA00201843C3
:108A600070BD70B502464A40D50F40004A00ED0780
:108A700040085208002814D0002A12D0C40DD30D8B
:108A800041020120C0055202490A520AE41A09189B
:108A900012187D34914201D3641C00E04900002C7F
:108AA00001DA002070BD0023914201D3891A0343EB
:108AB000400849000028F7D100290AD0914202D18C
:108AC0000121C90705E0914201D2012101E0012104
:108AD000C943E005C018401900F098FB70BD0000C4
:108AE000F0B507460846584087B0C00F04904800CC
:108AF0000E46590040084908BC1A884105D238463C
:108B000031461E4617460B460246580040081043A1
:108B10004CD0300D039040055900400D490D059093
:108B2000401A0290402872DA18030121000B09054F
:108B30000843019004980092002805D00199524200
:108B40000020884100920190029840210A1A019960
:108B5000009800F066FA05460C466B4607CB00F01D
:108B600070FAC0197141039A0E0D0023D7175640B1
:108B70001A467A40164344D0049A002A2DD0029A0D
:108B8000012A039A15DC1205C01A91410126360507
:108B9000001C7141D20F059ED207009301920296EC
:108BA0002A46234600F080FB07B0F0BD3846314628
:108BB000FAE71605224A0F46B218C01AB74101213A
:108BC0000905001C4F4100187F41114618187941D2
:108BD000E20F10436D19644113E0E2076D0815437D
:108BE0006408C2071443039A01261205C01A914172
:108BF0003605001C7141CE07400830434908C018B3
:108C000051412A46234600F042FBCDE7FFE7049896
:108C100001224000C117121A00238B4104983146EB
:108C2000C417381AA141EEE730B40124E4076340C9
:108C300030BC55E730B40124E407614030BC4FE755
:108C40000000E0FFF0B51FB488B00B99099800242C
:108C500048400999C00F490049080991C0070B997C
:108C60000090490049080B9109990898A6460843C5
:108C70001CD00B990A98084318D009980124400089
:108C8000420D4800410D099824050003000B2043C4
:108C900009900B980003000B20430B9050181C49BF
:108CA0004018002201901446104605E000200146BD
:108CB0000DB0F0BD032801DA034600E003239C4613
:108CC000C11A0AAE0AE05F0008ADED5B4F00F75B2A
:108CD0007D430027AA187C41491C5B1E6145F2DDDB
:108CE000410004AB5A522104120C0A43240C401CCC
:108CF0000828DFDB019802900099704601910090EE
:108D0000059B049A0799069800F0CEFAD0E7000078
:108D10000DFCFFFFF0B50C465C4085B0E40FE407A6
:108D200003944C0000266408590094464908024602
:108D30000296224321D062460A431ED06200570D9C
:108D40004A000E032303550D012402462C49240535
:108D5000781B1B0B360B40182343264361460090BB
:108D60001C46501AB44103D30098401C009002E006
:108D7000921800985B41002803DA0020014605B0F4
:108D8000F0BD0020012109050746864611E0644632
:108D90001D46141BB54106D36546521BB3417446AC
:108DA00007430C43A646CD074008490828439218BC
:108DB0005B4105460D43EAD11046184313D0604687
:108DC000194650407140084306D06046101AB3411E
:108DD00006D20122002306E000220123DB0702E085
:108DE0000122D2435310009874460105381C61419A
:108DF000029C039D0019694100F049FABFE7000099
:108E0000FD03000010B500229623114600F006FA7B
:108E100010BD00000EB5C217C10F5040CA07401860
:108E20000021054B0293019200910A460B4600F087
:108E30003BFA03B000BD000033040000C20F410044
:108E400040020123400ADB05D207090EC0187F2922
:108E500001DA00207047962903DC9623591AC8408E
:108E600001E096398840002AF4D040427047C20F92
:108E7000D207400040080BD0C10D0723DB01C91801
:108E800040020905400A1143C208400711437047D8
:108E9000002001467047000010B5002904DB0124C2
:108EA000E40740428C412146002B04DB1C46012391
:108EB000DB075242A3418B4200D1824210BD000029
:108EC00010B5002904DB0124E40740428C4121460F
:108ED000002B04DB1C460123DB075242A3419942CD
:108EE00000D1904210BD0000CB0FDB07490010B548
:108EF000490802460A4307D00A0D07240903E40182
:108F0000090B121B002A01DC002010BDC900440F10
:108F10000C43C100E018D205801800F077F910BDAD
:108F20000122D207002800DB101A002900DB511AA9
:108F3000814270470122D207002800DB101A002965
:108F400000DB511A88427047F0B51FB40646002076
:108F500082B005464024019100901BE00199224611
:108F60000F463046FFF726F9049A059B801A99416F
:108F700010D310461946224600F053F8361A8F4196
:108F80000197224601200021009F00F04AF838187E
:108F90004D4100902046641E0028DFDC019B0098B4
:108FA0002946324607B0F0BDF0B51FB486B00020A8
:108FB0000090019002900698069980B2049007985C
:108FC000090C02040014114307900027089D09981A
:108FD00006913E463C4603900398A9B20204000C59
:108FE000039004982D0C154348430021224600F0BD
:108FF00018F8C719714110340E46402CECDB384686
:10900000029A00F00EF8009A019B801800905941D6
:1090100002980191103002904028CCDB00980BB0F0
:10902000F0BD10B5202A04DB0146203A9140002013
:1090300010BD914020239C1A0346E3401943904001
:1090400010BD10B5202A06DBCB170846203A104188
:10905000C1170B4306E00B461341D0402024A21A4F
:1090600091400843194610BD3A2800D230382023D9
:1090700002469A43412A01D310463738884201D329
:109080000020C04370470000026813785118016047
:109090001846704710B5D160044951610449116206
:1090A00000211161114600F091F910BD899000086E
:1090B000E18100084268002A08D001680B78491C49
:1090C000002B03D0521E06C0184670470121C16014
:1090D000881E70474268002A0BD0C3680168002BC5
:1090E00007D183688B4204D0491E521C06C0002061
:1090F00070470020C04370470FB400B589B00CA979
:1091000000910B990023CB60204B214A06930792D4
:10911000042201921F4A02921F4A089202466B469D
:109120000020FFF7D0FA09B008BC04B0184770B5AA
:1091300086B006460020C0430190002015460C462C
:109140000091029104903246694604A8FFF7D4FFCB
:10915000024604982118002D05D0002801D00846A9
:1091600000E020462860049800280DD0002A02DD87
:109170000098884208D0081B019000943246694646
:10918000029404A8FFF7B8FF06B070BDB5900008C0
:10919000D5900008FFFFFF7FE1810008F7B5009C34
:1091A0000F4600262578641C002D05D0FFF714F823
:1091B0000068405DC007F5D12B2D02D02D2D18D0B1
:1091C000641E39462046029A00F09CFA002F04D013
:1091D0003968A14201D10099396071050224002942
:1091E0000BDA4042002803DD0FF020FA0460A007EC
:1091F000FEBD012080020643E3E70028F8DA0FF005
:1092000015FA04600048FEBDFFFFFF7F002904DA65
:10921000401C490001D140084000704770B4002450
:10922000050C05D11024000402D1002921D01124FD
:10923000050E01D100020834050F01D10001241DE3
:10924000850F01D18000A41C002801DB4000641CB4
:10925000002908D020252E1B0D46F540A14000D046
:1092600001212943084301061B1B000ADB1D02D50F
:10927000002070BC7047DB05181880180029F8DA48
:10928000401C4900F5D170BC40084000704710B543
:10929000002B08DA0024401C614192185B411A43FC
:1092A00001D14008400010BDF0B51FB482B00546A2
:1092B0000C0003D008460FF093F902E00FF090F98C
:1092C00020300246009021462846FFF7AAFE049B64
:1092D000059A04460F4618431143084314D0184614
:1092E00010431BD0009840210A1A18460599FEF732
:1092F00061FF05460E46009A05990498FFF791FE16
:10930000084305D0012004E02046394607B0F0BDEF
:109310000020C11705430E432C43374300990E9894
:109320006305401A7905E40A00220C43FD0A0A305D
:1093300002D500200146E9E70105101969410C9C9E
:109340000D9D00196941FFF7A2FFDFE70EB5054A41
:1093500002920022009213460192FFF7A5FF03B08C
:1093600000BD0000330400004A0009030123090B7B
:109370001B0519430A4B10B5520D9A4202DA002020
:10938000014610BD064B34339A4203DC9A1AFEF7AD
:1093900011FF10BD034BD218FFF743FE10BD0000B4
:1093A000FF030000CDFBFFFF064C0125064E05E044
:1093B000E36807CC2B430C3C98471034B442F7D3F6
:1093C000FEF77EFEB8C90108D8C90108F3B58DB013
:1093D00000200A9001200B90002608460C300C4615
:1093E00009906269012109989047051E2ED0252D0C
:1093F0002DD0216A8847002818D062690121099878
:109400009047216A88470028F7D1411E6269099870
:10941000904700E0761CA1690D988847216A88472B
:109420000028F7D1E1690D988847DAE7A1690D981E
:1094300088470746A84201D1761CD2E7E1690D981A
:1094400088477F1C02D10A98002877D049E100277D
:1094500062693D463946099890472A280CD16269CD
:10946000012109989047012506E00A214F433F1842
:10947000303FEBD4102005436269012109989047E1
:10948000014630390A2903D29B498F42DEDCECE7E2
:10949000E90600D4994F6C280AD04C2810D06828CF
:1094A00024D06A282ED074280CD07A280AD00DE057
:1094B00062690121099890476C2823D004211CE09F
:1094C000202005436269012109989047A7606560E3
:1094D00065284FD026DC582839D01ADC452849D0D9
:1094E00012DC252834D04128B0D143E06269012143
:1094F00009989047682802D008210D43E6E701202B
:10950000C002DEE70220DCE7462833D047282CD112
:1095100030E05B2870D061282CD063286CD06428A0
:1095200023D161E06F284FD009DC662822D067285C
:1095300020D0692826D06E2817D12EE0CDE07028E3
:109540004DD073286FD075284ED078280DD154E0B7
:10955000A1690D9888470546252800D16CE7E16987
:109560000D9888476D1C00D16DE7BAE00A224CE0E7
:109570000A2252E0012023466A46C0430D99FFF7B4
:10958000A2F8A3E02846402108436060A8072346CC
:1095900001D5002239E000223FE0E80700D020E7B3
:1095A0002068011D21600068290501D5067018E7B3
:1095B000290701D5068014E7A90703D5F11706602E
:1095C00041600EE706600CE72846402108436060D2
:1095D000A807234601D5082217E008221DE04849C4
:1095E00028460840606016E0284640210843606035
:1095F000A8072346BCD5B9E715E028464021084313
:109600006060A80707D5234610220120C0430D99AA
:10961000C046C0465AE0234610220120C0430D999F
:10962000FEF7A8FE52E000210C910B460091632842
:1096300002D05B2807D043E0E80601D40120A060F7
:10964000012000903CE062690121099890475E2862
:1096500005D101200C900146626909989047216963
:10966000002906D10B4601AA8F00491CD3510829B5
:10967000FADB002835D0216900290ED1C117C90EA7
:1096800009184A11930001AA9A1849094901411A77
:10969000012013688840034313606269012109981F
:1096A00090475D28E5D10C98002808D0002001AB38
:1096B00081005A58401CD2435A500828F8DB01ABAD
:1096C00001202246C0430D99FEF7F9FE00280ADA70
:1096D000401C06D10B98002803D00020C0430FB0D7
:1096E000F0BD0A98FBE7E90702D10A99491C0A91E3
:1096F000361800200B9074E6CCCCCC0CFFFFFF7F1B
:10970000F1F7FFFFF7B582B0029C00272078641CB8
:1097100015460197302802D0002D15D015E020788D
:109720000127641C782804D0582802D0002D09D0C5
:109730000BE0002D01D0102D07D100271025207837
:10974000641C02E0082500E00A250026009610E0CF
:109750000099012769430818020C294680B2714319
:1097600000908E183804864201D3012001902078A1
:10977000641C2946FFF778FC0028E9DA03980028E2
:1097800005D0002F01D0641E00E0029C0460019807
:10979000002806D00EF04AFF02210160C81E05B065
:1097A000F0BD009930040843F9E770B58C180578CE
:1097B000401C6B075B0F01D10378401C2A1106D1B6
:1097C0000278401C03E006780E70401C491C5B1EAA
:1097D000F9D12B0705D40023521E0DD40B70491C60
:1097E000FAE70378401CCB1A921C03E01D780D7039
:1097F000491C5B1C521EF9D5A142D8D3002070BD74
:1098000010B5024802F0D2F810BD0000E029002097
:1098100070B504460025206880680421084080084F
:10982000002829D020688068084000280BD02068D4
:10983000806802210840002805D120688068102136
:1098400008432168886002F029FE05460EE002F018
:1098500025FE401B022809D9606C10210843606472
:10986000A06C01210843A064012070BD20688068BD
:10987000042108400028EAD10020F6E770B505462B
:109880006C6A606C50210840002835D1606C012161
:109890004902084360642068C068032189020840C7
:1098A000002825D1206A002822D1206800680821DC
:1098B000084008281CD120688068042108408008DE
:1098C00000280DD1206840680C2188432168486039
:1098D000606CFF210131884301210843606407E087
:1098E000606C202108436064A06C01210843A064DF
:1098F000204601F06FFD03E0E06B016B28468847CE
:1099000070BD70B505466C6A606C402108436064A8
:10991000A06C04210843A064204602F046F870BD04
:1099200070B50446656A284602F03EF870BD70B511
:1099300004460025206880688007800F01280ED12A
:1099400020680068C007C00F002806D12068C068E2
:109950000121C9030840884201D1012000E0002014
:10996000002837D02068806805210840012800D1F0
:1099700000E0002000280AD000BF20688068022193
:1099800008432168886003202168086009E0606C52
:10999000102108436064A06C01210843A0640120E9
:1099A00070BD02F07BFD05460EE002F077FD401B26
:1099B000022809D9606C102108436064A06C012161
:1099C0000843A0640120EBE720688068C007C00F4F
:1099D0000028EAD10020E3E738B50446002500203E
:1099E0000090206880688007800F01280ED12068D1
:1099F0000068C007C00F002806D12068C068012198
:109A0000C9030840884201D1012000E0002000285D
:109A100043D12068806822490840002801D10120F4
:109A200000E00020002809D1606C10210843606428
:109A3000A06C01210843A064012038BD2068806823
:109A40000121084321688860164917480068FEF71D
:109A500087FB009002E00098401E009000980028CC
:109A6000F9D102F01BFD05460EE002F017FD401B88
:109A7000022809D9606C102108436064A06C0121A0
:109A80000843A0640120D8E720680068C007C00F21
:109A90000121484048400028E7D00020CDE70000E1
:109AA0001700008040420F000C04002070B50646ED
:109AB000124C13A12046FEF7D2FB0546002D07D01D
:109AC00010A00EF069FD002012490870012070BD41
:109AD00010480078401C0F490870084600780A2892
:109AE00009D1002008700C490C48006811F0D3FE21
:109AF0000BA00EF051FD0020E9E70000E904002072
:109B00004F4B00004154204F4B2066696E64210D7D
:109B10000A000000FA03002001008000700200200B
:109B20004154204552520D0A0000000070B506460F
:109B30001C4D1DA12846FEF792FB0446002C2ED09A
:109B40001AA12846FEF78BFB0446002C27D018A14B
:109B50002846FEF784FB002805D116A12846FEF70B
:109B60007EFB002813D014480078401C124908706E
:109B7000084600780F2812D1002008700F491048BD
:109B8000006811F088FE0FA00EF006FD07E010A09F
:109B90000EF002FD002008490870012070BD002071
:109BA000FCE70000E90400204F4B00004353510044
:109BB00039390000302C3000FB0300200200800007
:109BC000700200204353512045525220210D0A00BB
:109BD000435351204F4B2066696E64210D0A0000EB
:109BE00070B506460C4D0DA12846FEF738FB04461D
:109BF000002C01D0012070BD09A12846FEF72FFBE3
:109C00000446002C06D008490848006811F043FEBD
:109C10000120F0E70020EEE7E90400204F4B0000B0
:109C20004552524F52000000002080007002002078
:109C300001460020704701460020704770B5064677
:109C40000C4D0DA12846FEF70AFB0446002C01D05E
:109C5000012070BD0AA12846FEF701FB0446002C36
:109C600006D009490948006811F015FE0120F0E707
:109C70000020EEE7E9040020434F4E4E45435400D8
:109C80004552524F52000000001080007002002028
:109C9000014600207047000070B506460C4D0DA12E
:109CA0002846FEF7DCFA0446002C01D0012070BDE6
:109CB0000AA12846FEF7D3FA0446002C06D009492B
:109CC0000948006811F0E7FD0120F0E70020EEE709
:109CD000E9040020434F4E4E454354004552524F35
:109CE00052000000800080007002002070B506461F
:109CF000124D13A12846FEF7B2FA0446002C01D0FB
:109D0000012070BD0FA12846FEF7A9FA0446002CD9
:109D100011D00E480078401C0C49087008460078A5
:109D2000052806D10020087009490A48006811F08A
:109D3000B2FD0020E5E70020E3E70000E904002091
:109D40004F4B00004552524F52000000FD030020CF
:109D500008008000700200200146002070470000CB
:109D600070B50646124D13A12846FEF778FA044650
:109D7000002C01D0012070BD0FA12846FEF76FFA1C
:109D80000446002C11D00E480078401C0C49087085
:109D900008460078052806D10020087009490A48BD
:109DA000006811F078FD0020E5E70020E3E70000FF
:109DB000E90400202E0000004552524F52000000DE
:109DC000FE030020100080007002002070B50646DF
:109DD000134D14A12846FEF742FA0446002C04D085
:109DE000002011490870012070BD10A12846FEF71F
:109DF00036FA0446002C11D00B480078401C0A4962
:109E00000870084600780A2806D100200870094921
:109E10000948006811F03FFD0120E5E70020E3E775
:109E2000E90400204F4B0000FC0300204552524F34
:109E300052000000040080007002002070B5064649
:109E40000C4D0DA12846FEF70AFA0446002C01D05D
:109E5000012070BD09A12846FEF701FA0446002C36
:109E600006D008490848006811F015FD0020F0E709
:109E70000020EEE7E90400204F4B00004552524F0E
:109E800052000000400080007002002070B50646BD
:109E90000C4D0DA12846FEF7E2F90446002C01D036
:109EA000012070BD09A12846FEF7D9F90446002C0F
:109EB00006D008490848006811F0EDFC0020F0E7E2
:109EC0000020EEE7E90400204F4B00004552524FBE
:109ED00052000000000180007002002001460120B5
:109EE000704710B50321142008F06AFB10BD000074
:109EF00010B503220021012011F060FD1F49086008
:109F000008460068002802D11DA00EF045FB032280
:109F10000021012011F052FD204908600846006828
:109F2000002802D116A00EF037FB002201210846BE
:109F300011F044FD1A49086008460068002802D163
:109F400018A00EF029FB11F098FC1A49086011F0D6
:109F500094FC1949086008460068002802D117A03F
:109F60000EF01AFB11F089FC1B49086008460068D6
:109F7000002802D119A00EF00FFB10BD68020020CE
:109F800053656D6170686F726520637265617420DE
:109F90006661696C6564210D0A0000006C02002096
:109FA00064020020637265617465206661696C6596
:109FB000640D0A007002002078020020637265615F
:109FC000746520424336365F41545F4465616C20BE
:109FD0006661696C656400007402002063726561EB
:109FE000746520424336365F41545F4576656E7432
:109FF00047726F7570206661696C656400000000CF
:10A0000008B5C02210498803FEF7F9F800BF0F48D1
:10A010008069012108430D49886108468069C007AD
:10A02000C00F009000BF00BF00BF09480068800853
:10A030008000074908600846006803210843044976
:10A04000086000BF08BD000000800008001002404A
:10A050000000014070B50646124D13A12846FEF7D8
:10A06000FEF80446002C0DD012A12846FEF7F7F8A2
:10A070000446002C04D180210F48006811F00BFC2D
:10A08000012070BD0DA12846FEF7E9F80446002C1A
:10A0900006D00C490C48006811F0FDFB0020F0E7E9
:10A0A0000020EEE7E90400202B5148545450504F53
:10A0B00053543A002C000000740200204552524FC5
:10A0C00052000000002080007002002070B506469B
:10A0D0000C4D0DA12846FEF7C2F80446002C01D015
:10A0E000012070BD09A12846FEF7B9F80446002CEE
:10A0F00006D008490848006811F0CDFB0020F0E7C1
:10A100000020EEE7E90400204F4B00004552524F7B
:10A1100052000000400080007002002070B506462A
:10A120000C4D0DA12846FEF79AF80446002C01D0EC
:10A13000012070BD09A12846FEF791F80446002CC5
:10A1400006D008490848006811F0A5FB0020F0E798
:10A150000020EEE7E90400203E0000004552524F87
:10A1600052000000400080007002002070B50646DA
:10A170000C4D0DA12846FEF772F80446002C01D0C4
:10A18000012070BD09A12846FEF769F80446002C9D
:10A1900006D008490848006811F07DFB0020F0E770
:10A1A0000020EEE7E90400204F4B00004552524FDB
:10A1B00052000000400080007002002070B506468A
:10A1C0000C4D0DA12846FEF74AF80446002C01D09C
:10A1D000012070BD09A12846FEF741F80446002C75
:10A1E00006D008490848006811F055FB0020F0E748
:10A1F0000020EEE7E90400203E0000004552524FE7
:10A200005200000040008000700200200146002043
:10A210007047000070B506460C4D0DA12846FEF7AC
:10A220001EF80446002C01D0012070BD09A128466B
:10A23000FEF715F80446002C06D0084908480068C7
:10A2400011F029FB0020F0E70020EEE7E9040020F0
:10A250004F4B00004552524F52000000400080001A
:10A260007002002070B506460C4D0DA12846FDF782
:10A27000F6FF0446002C01D0012070BD09A128463C
:10A28000FDF7EDFF0446002C06D008490848006899
:10A2900011F001FB0020F0E70020EEE7E9040020C8
:10A2A0004F4B00004552524F520000000001800009
:10A2B0007002002010B5002400BF3EE02048005D81
:10A2C0000C2250431F4A801841681FA00EF064F909
:10A2D0000020204988721A48005D0C225043194A18
:10A2E000811800230A221C48006811F096FC1EE029
:10A2F0001A4802F00FF901211948006811F0CBFA51
:10A300000F49095D0C2251430E4A891815A30122F9
:10A3100048687D21C90009F0D9FE00BF00235A1EFC
:10A3200019461248006811F071FB0028F6D0094860
:10A33000807A0028DCD0601CC4B2052CBEDB10BDC6
:10A34000F50300207C02002073656E642025730DE8
:10A350000A0D0A00A40D002064020020B42D002084
:10A36000780200204F4B0D0A000000006C02002014
:10A37000F7B5074615460421052000F02AF880218C
:10A380000A2008F01DF9002405E0395D09200EF0CF
:10A39000E3F8601CC4B201988442F6DB032101207B
:10A3A0000EF0DAF8FF2400BF052007F031F9064669
:10A3B000601EC4B2002C03D0042030400028F3D02B
:10A3C000222007F025F92870212007F021F9687074
:10A3D000FEBD70B505460C46284607F019F906463D
:10A3E0003046A043014628460EF0B6F870BD000086
:10A3F00070B505460E4618A11848FDF730FF044613
:10A40000002C06D01648174988601748174948613C
:10A4100005E0174813498860164814494861002030
:10A4200015498864114908604860886013480861CC
:10A4300000210A4880304161012011490870002044
:10A440000A49C861086201200E4908700E49087067
:10A450000EA00EF0A1F870BD4B450000FC2A0020B4
:10A4600000005041B42B0020000069431C2C002048
:10A470000000704100007A45402C00209A9921404C
:10A480001702002018020020190200204F4B4F4BEA
:10A490004F4B0D0A00000000F0B587B007460D468F
:10A4A0000A2206A9384610F0BDF91F480078A842D4
:10A4B00019D11EA101A8FDF726FF06A901A8FDF7E5
:10A4C000C2FE1EA101A8FDF7BEFE002406E001A801
:10A4D000065D154840680655601C84B201A8FDF76A
:10A4E000E9FEA042F3D81048007EA8421AD114A178
:10A4F00001A8FDF708FF06A901A8FDF7A4FE0FA11A
:10A5000001A8FDF7A0FE002407E001A8065D0648AB
:10A51000183040680655601C84B201A8FDF7CAFED9
:10A52000A042F2D807B0F0BD9C03002041542B514B
:10A530004854545055524C3D000000000D0A000094
:10A5400041542B5148545450504F53543D00000037
:10A5500010B5024801F0E6FC10BD00002C2A0020D6
:10A5600010B5024801F0DEFC10BD0000E82F00200D
:10A5700010B50446054A2168881A1421FDF7F0FD3C
:10A580008000206401480838E06310BD08000240E4
:10A5900030B50124056CAC40C56B6C600468636029
:10A5A0004468102C04D10468A2600468E16003E0F0
:10A5B0000468A1600468E26030BD00007CB5054617
:10A5C0000C462168881C01AA09A1FDF7B5FE216887
:10A5D000084608306A4606A1FDF7AEFE01990098CC
:10A5E00008F026FB0021084606F09AFC7CBD00001E
:10A5F00025366C640000000070B504460D461A2034
:10A600000EF04AF820601A212068FDF711FE04229E
:10A6100029462068FDF763FE1AA12068FDF713FEA6
:10A620000222291D2068FDF75AFE16A12068FDF7B9
:10A630000AFE0222A91D2068FDF751FE12A1206822
:10A64000FDF701FE0222294608312068FDF747FE8A
:10A650000EA12068FDF7F7FD022229460A31206885
:10A66000FDF73DFE09A12068FDF7EDFD0222294618
:10A670000C312068FDF733FE05A12068FDF7E3FDEE
:10A6800070BD00002D000000540000003A000000E2
:10A690002E3030315A220000F8B504462E4800789A
:10A6A000C72809D12DA00DF077FF00202A49087096
:10A6B000C8212E48FDF7BCFD27480078002803D1AB
:10A6C000232C01D00120F8BD232C0AD12248007888
:10A6D000022806DD002020490870C8212348FDF724
:10A6E000A7FD22481C49097844541B480078401CA7
:10A6F000194908700846007801282ADD1CA11B486A
:10A70000FDF7ADFD0546002D23D01AA11748FDF732
:10A71000A6FD0546002D08D000200F490870C8216D
:10A720001248FDF785FD0020CDE7104F12A13846F5
:10A73000FDF795FD0646002E0BD0B01CC11B384618
:10A740000EF04EFCC8213846FDF772FD002002498C
:10A7500008700120B7E700006C010020696E646595
:10A76000785F69206F7665720D0A00003815002049
:10A770002323000041542B002A2A000010B5012099
:10A7800001F074FD022001F071FD10BD10B5042030
:10A7900001F06CFD10BD10B50120000301F066FD55
:10A7A00010BD0000F8B506460D461446002D56D0E3
:10A7B0002846FDF77FFD871E14226946384610F0B3
:10A7C00031F844A12068FDF73EFD3046FDF772FDEB
:10A7D000871E3A4631462068FDF781FD3FA120687B
:10A7E000FDF731FD40A12068FDF72DFD3FA1206858
:10A7F000FDF729FD3CA12068FDF725FD48A1206853
:10A80000FDF721FD38A12068FDF71DFD48A1206856
:10A81000FDF719FD34A12068FDF715FD4CA1206856
:10A82000FDF711FD30A12068FDF70DFD4DA1206859
:10A83000FDF709FD69462068FDF705FD2AA120689E
:10A84000FDF701FD28A12068FDF7FDFC29462068E1
:10A85000FDF7F9FC24A12068FDF7F5FC38E045A1DF
:10A860002068FDF7F0FC3046FDF724FD871E3A46D0
:10A8700031462068FDF733FD18A12068FDF7E3FCA1
:10A8800019A12068FDF7DFFC25A12068FDF7DBFC9E
:10A8900015A12068FDF7D7FC14A12068FDF7D3FCB3
:10A8A00011A12068FDF7CFFC29A12068FDF7CBFCA2
:10A8B0000DA12068FDF7C7FC0BA12068FDF7C3FCC4
:10A8C00009A12068FDF7BFFC07A12068FDF7BBFCCC
:10A8D000F8BD0000504F535420000000204854544D
:10A8E000502F312E310000000D0A0000582D41700C
:10A8F000692D4B65793A205167344549476A35706F
:10A900006969444E5662345037546838636F703604
:10A9100030544A5532786D74494B77786F32300035
:10A92000582D4C6F63616C653A64657600000000D9
:10A93000436F6E74656E742D547970653A20617042
:10A94000706C69636174696F6E2F6A736F6E00005B
:10A95000486F73743A746573742E6B6F70342E6322
:10A960006F6D0000436F6E74656E742D4C656E677D
:10A9700074683A00474554200000000070B5054651
:10A980000C46074A07A12068FDF7D6FC064A05A138
:10A990006068FDF7D1FC01200449087070BD00001B
:10A9A000C801002025640000CC010020D001002057
:10A9B00070B504460D4603484268016802A00DF0D8
:10A9C000EBFD70BDD82C002046696E644C6F674962
:10A9D0006E6465782025642025640D0A000000005F
:10A9E00030B591B00446224608A101A80DF0E4FD5F
:10A9F0000DA301227D21090101A809F067FB05468D
:10AA0000012D01D111B030BD0020FBE741542B4393
:10AA10004744434F4E543D312C224950222C22258D
:10AA200073220D0A000000004F4B000038B50E489D
:10AA30000079022809D10DA00FA30222124900902B
:10AA400012A009F043FB044608E008A013A3022269
:10AA50000D49009014A009F039FB0446012C01D1E6
:10AA6000012038BD0020FCE7801300200D0A45526C
:10AA7000524F520D0A0000000D0A44454143542034
:10AA80004F4B0D0A000000008813000041542B5169
:10AA90004944454143540D0A000000000D0A534843
:10AAA0005554204F4B0D0A0041542B4349505348F5
:10AAB00055540D0A0000000038B5044609A00CA347
:10AAC00002227D21C90000900BA009F0FFFA054683
:10AAD000002C05D0012D03D10B492046FDF713FCB6
:10AAE00038BD00000D0A4552524F520D0A000000B9
:10AAF0000D0A4F4B0D0A000041542B43475041446F
:10AB000044520D0A000000005C12002030B591B0E4
:10AB10000446224608A101A80DF04EFD0AA3012219
:10AB20007D21090101A809F0D1FA0546012D01D1C5
:10AB300011B030BD0020FBE741542B4350494E3D3E
:10AB4000222573220D0A00000D0A4F4B0D0A00004A
:10AB500010B506A301227D21090106A009F0B6FA6D
:10AB60000446012C00D110BD0020FCE70D0A4F4B1C
:10AB70000D0A000041542B51494346473D2273685A
:10AB80006F776C656E677468222C310D0A000000C7
:10AB900070B5054606A301227D21490106A009F0F2
:10ABA00095FA0446012C00D170BD0020FCE700009E
:10ABB0000D0A4F4B0D0A000041542B43474154549A
:10ABC0003D310D0A0000000070B506460C46064DEA
:10ABD0002A4606A12068FDF7AFFB01200449087052
:10ABE00004A00DF0D9FC70BDBC2B00202566000030
:10ABF000180200204F4B4F4B4F4B0D0A0000000036
:10AC000010B510F03AFE0149086010BD04040020A0
:10AC1000FEB50021019114200DF03EFD3D49486034
:10AC200014200DF039FD3B49183148601839486847
:10AC30001421FDF7FDFA3749183148681421FDF752
:10AC4000F7FA012080020DF027FD00900121890212
:10AC50000098FDF7EDFA10200DF01EFD044632209D
:10AC60000DF01AFD06462CA00DF096FC32A02060D7
:10AC70002068FDF71FFB81B2019135A0A06036A0CE
:10AC8000E06036A13046FDF7DEFA37493046FDF781
:10AC9000DAFA666030A1204608F08AF805461D48B9
:10ACA0000C3045602846FDF705FB801E81B20191FE
:10ACB000192168468088FFF7EFFB6A460021284685
:10ACC000FFF770FD13482430009941600098FDF7AC
:10ACD000F1FA801E87B21B213846FFF7DDFB07F033
:10ACE00099FB30460DF0A6FC20460DF0A3FC28464B
:10ACF0000DF0A0FC00980DF09DFC1C49486E0DF075
:10AD000099FC0449783948680DF094FC18A00DF0BE
:10AD100043FCFEBD9C0300202A2A2A2A2A2A4765D2
:10AD2000744D6574657253657474696E67732A2A0D
:10AD30002A2A2A2A0D0A000068747470733A2F2F89
:10AD4000746573742E6B6F70342E636F6D2F0000FB
:10AD50006D657465722F00000000000073657474E7
:10AD6000696E67732F000000FC2A00207C0200201F
:10AD70002A2A2A2A2A2A656E64204765744D65743A
:10AD8000657253657474696E67732A2A2A2A2A2A9F
:10AD90000D0A000030B587B004460D46002202A916
:10ADA000124802F0B5FA002201A9104802F082FA16
:10ADB0006846017A0E4841436846407A642250430F
:10ADC00009186846807A081820606846C0797D2195
:10ADD0000901411806484143684640795043091823
:10ADE000684680790818286007B030BDC42D00205F
:10ADF0001027000030B593B0044677A279A10EA8C1
:10AE00000DF0DAFB78A277A109A80DF0D5FB03229B
:10AE10000EA904A80FF0D0FC05462A4671A104A88B
:10AE20000DF0CAFB73A104A8FDF74BFA002803D16B
:10AE300001206946C88070E06FA104A8FDF741FABF
:10AE4000002803D102206946C88066E06BA104A8EF
:10AE5000FDF737FA002803D103206946C8805CE07B
:10AE600067A104A8FDF72DFA002803D10420694644
:10AE7000C88052E063A104A8FDF723FA002803D19B
:10AE800005206946C88048E05FA104A8FDF719FACB
:10AE9000002803D106206946C8803EE05BA104A8D3
:10AEA000FDF70FFA002803D107206946C88034E077
:10AEB00057A104A8FDF705FA002803D10820694628
:10AEC000C8802AE053A104A8FDF7FBF9002803D1AC
:10AED00009206946C88020E04FA104A8FDF7F1F9D8
:10AEE000002803D10A206946C88016E04BA104A8B7
:10AEF000FDF7E7F9002803D10B206946C8800CE074
:10AF000047A104A8FDF7DDF9002803D10C2069460C
:10AF1000C88002E001206946C88002220FA904A867
:10AF20000FF04AFC05462A462EA104A80DF044FB6A
:10AF300004A8FDF7F3FC81B26846018104220FA941
:10AF4000033104A80FF038FC05462A4625A104A8C1
:10AF50000DF032FB04A8FDF7E1FC81B26846818167
:10AF6000022209A904A80FF027FC05462A461DA1C4
:10AF700004A80DF021FB04A8FDF7D0FC81B26846BF
:10AF80000180022209A9033104A80FF015FC05462F
:10AF90002A4614A104A80DF00FFB04A8FDF7BEFC7F
:10AFA00081B26846418002220AA9023104A80FF04A
:10AFB00003FC05462A460BA104A80DF0FDFA04A8DF
:10AFC000FDF7ACFC81B2684681800E2269462046BE
:10AFD000FDF715F913B030BD4465632020332032EE
:10AFE000303230002573000031303A35303A303697
:10AFF000000000004A616E00466562004D6172000B
:10B00000417072004D6179004A756E004A756C009E
:10B0100041756700536570004F6374004E6F760092
:10B020004465630010B58AB000200890099008AC10
:10B03000089009906846FFF7DDFE68460FC8079341
:10B0400004AB07C36846C28A0AA108A80DF0B4FA87
:10B050006846FFF7CFFE68460FC8079304AB07C3E7
:10B060006846028B03A122300DF0A6FA20460AB0F2
:10B0700010BD0000253032640000000017B585B017
:10B0800001A96846FFF786FE35490198FDF77EF86D
:10B09000049064210198FDF779F804466421FDF7D6
:10B0A00075F86846017364210198FDF76FF86846EA
:10B0B000C1722B490098FDF769F8C1B268468172E8
:10B0C00064210098FDF762F804466421FDF75EF8FC
:10B0D0006846417264210098FDF758F8684601728D
:10B0E000817D807A81421CDC6846817AE120000102
:10B0F00041436846407A3C22504309186846007A2A
:10B100000A186846817DE120000141436846407D80
:10B110003C23584309186846007D0818101A08B0E7
:10B1200010BD6846817AE120000141436846407ABB
:10B130003C22504309186846007A08180949421809
:10B140006846817DE120000141436846407D3C2303
:10B15000584309186846007D0818101ADFE70000F8
:10B160001027000080510100F8B504460025002694
:10B17000002700BF4020005D012801D10220F8BD5A
:10B1800001214020015500BF206880688007800FA2
:10B1900001280CD1206800680840002805D12068EB
:10B1A000C068C9030840884201D1012000E00020A6
:10B1B00000283FD1606CFF21013188430221084300
:10B1C00060642068C0688707BF0F2068C068800877
:10B1D00080002168C860206880680121C907084391
:10B1E0002168886001F05AF9064611E001F056F92D
:10B1F000801B02280CD9606C02218843102108436F
:10B20000606400BF00214020015500BF0120B6E767
:10B2100020688068C00FC0070028E7D12068C06898
:10B2200038432168C860606C0221884301210843CB
:10B23000606404E0606C202108436064012500BF65
:10B2400000214020015500BF284698E7F8B5044684
:10B250000D4600260020009001210907A06B8842BE
:10B2600015D0A06B012812D0A06B02280FD0A06BC4
:10B2700003280CD0A06B042809D0A06B052806D0A9
:10B28000A06B062803D0A06B072800D000BF00BF2A
:10B290004020005D012801D10220F8BD012140209D
:10B2A000015500BF206880680421084080080028FC
:10B2B0007BD14449686888425BD02068806A2A78DC
:10B2C0000121914008432168886201210907A06B90
:10B2D000884229D0A06B012826D0A06B022823D059
:10B2E000A06B032820D0A06B04281DD0A06B0528DC
:10B2F0001AD0A06B062817D0A06B072814D0A86816
:10B30000216849694907490F88420DD02068406982
:10B31000C008C0002168486120684069297A49074F
:10B32000490F0843216848612868102802D028681E
:10B3300011283FD1244880682968102901D1C90407
:10B3400001E00121890508431F4988602868102809
:10B3500030D11E491E480068FCF702FF0A2148430D
:10B36000009002E00098401E009000980028F9D15B
:10B3700020E02068806A2A78012191408843216872
:10B3800088622868102802D02868112812D10E4837
:10B3900080682968102902D1C90402E005E0012172
:10B3A000890588430849886004E0606C20210843CF
:10B3B0006064012600BF00214020015500BF3046D7
:10B3C0006BE70000011000000027014040420F0021
:10B3D0000C040020F1B586B0069800F017FD002699
:10B3E000FE48007800287DD1FD4800780028FAD179
:10B3F000FC4800780028F6D1FB4800780028F2D1FC
:10B40000FA480078012855D1F948007803282ED150
:10B41000F8490868FDF7F6FC8B21C9050390FDF794
:10B4200020FB0746FDF723FDF34AF44B05910490FA
:10B43000FDF708FC0446FDF757FDF1490860F1A14E
:10B44000F148FCF73EFF00280AD1ED480068EF49BB
:10B450000860EF48EF4908600020EF49086006E007
:10B46000E7480068ED4908600020ED490860E048C1
:10B4700000780128C7D1DF490868FDF7C3FC8B219C
:10B48000C9050390FDF7EDFA0746FDF7F0FCDA4A2F
:10B49000DA4B05910490FDF7D5FB0446FDF724FD3A
:10B4A000D7490860DFA1D848FCF70BFF002802D17C
:10B4B000DD49086067E1DD480078002807D0DB48F7
:10B4C00000780128F6D1DA4800780328F2D1CDA11E
:10B4D000D848FCF7F6FE002873D1C9480068FDF78C
:10B4E000C6FC00E0D2E10446D34AD44BFDF7E8FCA9
:10B4F00068D27F21C905C2480068FDF711FD61D8F7
:10B50000BF480068FDF7B3FC0446CD4ACD4BFDF7BC
:10B51000D7FC15D2BA480068FDF7A9FCCA4ACB4B44
:10B5200003910290FDF78EFBC94ACA4B0591049026
:10B53000FDF77AFB0446FDF7D7FCBB49086014E031
:10B54000AF480068FDF793FCC34AC44B03910290D7
:10B55000FDF778FB0446C24AC24BFDF765FB059137
:10B560000490FDF7C1FCB04908600021AE480068B6
:10B57000FDF7E0FC9ED2BC49AB480068FDF7D0FC6B
:10B5800098D2AA48007801281DD1B848C168A648B9
:10B590000068FDF729FA0190FDF769FC04460022D6
:10B5A000B34BFDF7B7FB0022B14B03910290FDF7BF
:10B5B00049FB05910490FDF797FC07460CF00AFA49
:10B5C0001CE036E01EE0A948C16897480068FDF716
:10B5D0000BFA0190FDF74BFC0022A54B0391029062
:10B5E000FDF798FB0022A34B05910490FDF72AFB81
:10B5F0000446FDF779FC07460CF0ECF9002086497B
:10B600000860C0E07F21C9057D480068FDF792FC15
:10B6100006D2142080490860002083490860B2E007
:10B620007D480068401C7C49086000207E49086015
:10B63000A9E073480068FDF71AFC04466E4A5242BE
:10B640008D4BFDF73DFC7DD2012189076C480068D8
:10B65000FDF766FC76D8894908687F21C905FDF7A2
:10B66000BBF90746FDF703FC0446854A854BFDF709
:10B6700013FC23D281494868FDF7F9FB0446804A50
:10B68000804BFDF709FC19D27849C868FDF7EFFB3C
:10B69000039102905A480068FDF7E9FB0191009080
:10B6A0000EF0EAFD0446039B029AFDF7CBFA0591E2
:10B6B0000490FDF719FC5C4908600DE06F490868CB
:10B6C0004F490968FDF790F904466C4841682046E7
:10B6D000FDF731F9544908605448007801281BD11E
:10B6E0006248C16850480068FDF77EF90190FDF797
:10B6F000BEFB00225E4B03910290FDF70BFB002284
:10B700005B4B05910490FDF79DFA0446FDF7ECFBB9
:10B7100007460CF05FF91CE05448C16842480068D5
:10B72000FDF762F90190FDF7A2FB04460022504BA1
:10B73000FDF7F0FA00224F4B03910290FDF782FAD9
:10B74000059100E009E00490FDF7CEFB07460CF000
:10B7500041F900203049086015E001218907284897
:10B760000068FDF7E7FB06D214202B490860002093
:10B770002D49086007E028480068401C26490860F9
:10B780000020294908604048007801287ED13B49C3
:10B7900008687F21C905FDF71FF90746FDF767FB1C
:10B7A0000446374A374BFDF777FB70D23349486878
:10B7B000FDF75DFB0446324A324BFDF76DFB78D254
:10B7C0000C494868FDF71EFB8B21C9050190FDF768
:10B7D00048F90746FDF74BFB044659E051010020AC
:10B7E0005201002053010020580200209201002045
:10B7F00014020020182900206666666666660A4004
:10B800009401002031000000C62B0020A40100207C
:10B810004C374940A8010020500200209C01002024
:10B82000A001002030000000980100202802002024
:10B8300088010020B02B002021B0726891EDE03F1C
:10B8400048E17A14AE47E13F2506819543034B401A
:10B8500024287E8CB99B3B40462575029AD04140F6
:10B860001361C3D32B3532400000A0411C2C0020B3
:10B8700000004E40000008409999E13F2C02002052
:10B88000314514EEF032AE3E910100205FE010E051
:10B890003C4A3D4BFDF7D6F9002201239B0703915B
:10B8A0000290FDF7CFF905910490FDF71DFB0646C8
:10B8B00041E036494868FDF7A5FA0490344801682C
:10B8C0000498FDF791F80746314841683846FDF77E
:10B8D00032F80590FDF7CBFA04462A4A52422D4B26
:10B8E000FDF7DAFA16D229494868FDF78BFA0746C0
:10B8F000274801683846FDF777F80546244841682F
:10B900002846FDF718F8044601218907FDF76CF871
:10B91000064610E01D494868FDF774FA05461C48C4
:10B9200001682846FDF760F804461948416820463A
:10B93000FDF701F806463046FDF799FA0446114A2C
:10B94000114BFDF7BDFA01D21348066000261348DB
:10B950000078012810D112480078032805DA104831
:10B960000078401C0E49087009E000200C4908705E
:10B9700001200C49087002E001200A49087007B054
:10B98000F0BD00006666666666660A4018290020FB
:10B990002C02002099990540B42B00202802002099
:10B9A00088010020930100207047704710B50446BD
:10B9B0002068006804210840042804D120684068F9
:10B9C000084004280AD02068006808210840082898
:10B9D00040D120684068084008283BD1606C1021A5
:10B9E0000840002803D1606C490108436064206866
:10B9F000C068032189020840002825D1206A002858
:10BA000022D1206800680821084008281CD120683D
:10BA1000806804210840800800280DD12068406813
:10BA20000C21884321684860606CFF210131884304
:10BA300001210843606407E0606C202108436064D2
:10BA4000A06C01210843A0642046FFF7C3FC0C2032
:10BA500021680860206800688021084080280ED195
:10BA6000206840680840802809D1606C490208437A
:10BA70006064204600F006F9802021680860206894
:10BA800000681021084010281AD12068406808403A
:10BA9000102815D1606B012805D02068C068C00748
:10BAA000C00F002809D0A06C02210843A064102018
:10BAB000216808602046FFF778FF102021680860A1
:10BAC00010BD000070B5044600260025002C01D1F1
:10BAD000012070BD606C002806D1A06400214020C8
:10BAE0000155204600F0D0F8606C10210840002875
:10BAF0007ED1002EFCD12068806804210840800897
:10BB00000028F5D1606C89018843022108436064F4
:10BB1000206880688007800F01280DD120680068A8
:10BB2000C007C00F002805D12068C06889030840FD
:10BB3000884201D1012000E0002000280FD12068B8
:10BB4000C06818218843A16808432168C86020683C
:10BB500000698000800861680843216808612068E6
:10BB6000C068464908402168C860A0698003E1694F
:10BB7000C9030843216A49030843616B012902D0C4
:10BB80000121090300E000210843E168084321691D
:10BB9000022901D1042100E000210843216B490062
:10BBA00008430543606A01280ED1206A002803D1AA
:10BBB00001200004054307E0606C20210843606415
:10BBC000A06C01210843A064FF21C231A06A884211
:10BBD00003D0E16AA06A084305432068C06828438F
:10BBE0002168C86001210907A06B884216D000E0D7
:10BBF0003DE0A06B012811D0A06B02280ED0A06BF5
:10BC000003280BD0A06B042808D0A06B052805D012
:10BC1000A06B062802D0A06B07280DD120684069D0
:10BC2000C008C0002168486120684069218F490729
:10BC3000490F0843216848612068C06810490840DE
:10BC4000A84208D10020A064606C02218843012131
:10BC50000843606410E0606C0221884310210843AF
:10BC60006064A06C01210843A064012604E0606CBC
:10BC7000102108436064012630462AE71902FEFFBE
:10BC8000E7FF3F837047000010B586B004462749A0
:10BC90002068884248D100BF25488069491508437B
:10BCA000234988610846806949150840009000BF13
:10BCB00000BFA0200190032002900020039001A962
:10BCC0000920C00600F0E2FA1A481B49086000206B
:10BCD00048600021184881608021C16089000161AD
:10BCE00089004161202181610021C16100F092F948
:10BCF000002803D08E2111A00CF04CFC00BF0D4891
:10BD00007830806A000900010A4978318862084663
:10BD1000806A0121084307497831886200BF00BF6B
:10BD20000548E063446200BF06B010BD0024014036
:10BD300000100240080002402C2A00202E2E2F5313
:10BD400072632F6164632E6300000000F8B504463F
:10BD50000D461646002720688068042108408008A8
:10BD6000002848D100BF4020005D012801D10220F9
:10BD7000F8BD01214020015500BFE069012803D032
:10BD80002046FDF729FE0746002F35D1606C1B4980
:10BD90000840FF210131084360640020A06400BF17
:10BDA00000214020015500BF1548E16B886215480D
:10BDB000E16BC8621448E16B08631C2021680860CD
:10BDC0002068406810210843216848602068C068E6
:10BDD000012108432168C86022681146403133467A
:10BDE0002A46E06B00F048F9206880680421084387
:10BDF0002168886000E002273846B9E7FEF1FFFFBE
:10BE00007D980008219900080399000870B5044640
:10BE1000002500BF4020005D012801D1022070BD37
:10BE200001214020015500BF2046FDF7F1FC0546E9
:10BE3000002D28D12068C068400840002168C860F3
:10BE4000E06B00F027F80546002D03D0606C402120
:10BE50000843606420684068102188432168486076
:10BE6000002D04D12046FDF762FD054602E0204684
:10BE7000FDF75DFD002D06D1606CFF210131884387
:10BE800001210843606400BF00214020015500BF2C
:10BE90002846C4E70146086800680E2290430A68F5
:10BEA000106008680068400840000A6810600120BF
:10BEB0000A6C9040CA6B506001222120425400BF9E
:10BEC00000222020425400BF0020704770B5044675
:10BED00000252120005D022803D00420A063012555
:10BEE0001EE0206800680E218843216808602068F1
:10BEF000006840084000216808600120216C8840EB
:10BF0000E16B486001212120015500BF0021202064
:10BF1000015500BF606B002802D02046616B884746
:10BF2000284670BD70B50446E06B05682068066859
:10BF30000420216C8840284000281BD00420304079
:10BF4000002817D02068006820210840002805D16B
:10BF50002068006804218843216808600420216C5F
:10BF60008840E16B4860E06A002852D02046E16AD0
:10BF700088474EE00220216C88402840002823D0CA
:10BF80000220304000281FD020680068202108408F
:10BF9000002808D1206800680A21884321680860C9
:10BFA0000121212001550220216C8840E16B48606D
:10BFB00000BF00212020015500BFA06A002828D022
:10BFC0002046A16A884724E00820216C8840284048
:10BFD00000281ED00820304000281AD020680068B1
:10BFE0000E218843216808600120216C8840E16BA4
:10BFF00048600120A06301212120015500BF0021DC
:10C000002020015500BF206B002802D02046216B64
:10C01000884770BD70B504460025002C01D1012071
:10C0200070BD022121200155206805681148054096
:10C03000A16860680843E1680843216908436169B1
:10C040000843A1690843E169084305432068056086
:10C050002046FEF78DFA0020A062E0622063606354
:10C06000A06301212120015500212020015500203D
:10C07000D6E700000FC0FFFFF8B504460D46164690
:10C080001F460020009000BF2020005D012801D144
:10C090000220F8BD01212020015500BF2120005DB4
:10C0A00001282DD10221212001550020A063206804
:10C0B000006840084000216808603B463246294637
:10C0C0002046FEF765FAE06A002806D0206800687E
:10C0D0000E210843216808600BE0206800680A21EF
:10C0E00008432168086020680068042188432168AB
:10C0F000086020680068012108432168086006E0A4
:10C1000000BF00212020015500BF022000900098B0
:10C11000BFE731B500F0C2F90546009C601C00285D
:10C1200000D0641C00BF00F0B9F9401BA042FAD354
:10C1300038BD0000F0B502460B4600200021002467
:10C140006FE0012585401D402946002968D015680B
:10C1500047000326BE40B5431560C508AE0015462E
:10C160002035AD594607F70E0F26BE40B543C60829
:10C17000B60017462037BD51956847000326BE40DC
:10C18000B5439560556801268640B5435560D5682E
:10C1900047000326BE40B543D560244D8608B6004F
:10C1A000AC5985072E0F0F25B5402C400925ED060B
:10C1B000AA4201D100250FE01D4DAA4201D101255F
:10C1C0000AE01C4DAA4201D1022505E01A4DAA42FF
:10C1D00001D1032500E005258607360FB540A542AD
:10C1E0001ED185072E0F0F25B5402C460F4D860812
:10C1F000B600AD59A5430D4E8708BF00F5510F4D50
:10C200002D688D430D4E356035466D688D437560E4
:10C210003546AD688D43B5603546ED688D43F560B4
:10C22000401C1D46C540002D8BD1F0BD08000140CB
:10C230000004004800080048000C004800040140C9
:10C24000012807D0022805D0042803D001210903C2
:10C25000884206D103490978002902D10121024A06
:10C2600011707047DE010020DD01002010B504468A
:10C27000054840692040002804D003484461204616
:10C28000FFF7DEFF10BD00000004014078B5034653
:10C29000002200240020DEE0012696400D68354093
:10C2A0002C46002C7ED04D68022D02D04D68122DF8
:10C2B00015D1D508AE001D462035A8595507EE0EFC
:10C2C0000F25B5400646AE4330465607F60E0D69BB
:10C2D000B5402843D508AD001E4620367051186879
:10C2E00056000325B5400646AE4330460D79AD07EE
:10C2F000AD0F5600B540284318604D68012D08D099
:10C300004D68022D05D04D68112D02D04D68122DBB
:10C3100018D1986856000325B5400646AE4330460E
:10C320005600CD68B540284398605868012595406F
:10C330000646AE43304610264D6835402D099540DF
:10C3400028435860D86856000325B5400646AE43DA
:10C35000304656008D68B5402843D8600126360720
:10C360004D683540B54275D100BF3E4DAD690126DF
:10C3700035433C4EB5613546AD69ED07ED0F00958F
:10C3800000BF00BF384D9608B600A85995072E0F7C
:10C390000F25B5400646AE4330460925ED06AB42B3
:10C3A00003D100E056E000250FE0304DAB4201D153
:10C3B00001250AE02E4DAB4201D1022505E02D4DAD
:10C3C000AB4201D1032500E005259607360FB540A5
:10C3D0002843254D9608B600A851274D28680546E4
:10C3E000A5432846012636044D683540B54202D1A2
:10C3F000054625432846204D286068680546A54324
:10C400002846012676044D683540B54202D10546DE
:10C4100025432846184D6860A8680546A543284668
:10C42000012636054D683540B54202D10546254303
:10C430002846114DA860E8680546A5432846012610
:10C4400076054D683540B54202D10546254328465C
:10C45000094DE860521C0D68D540002D00D01BE747
:10C4600078BD0000001002400800014000040048B0
:10C4700000080048000C004800040140024613690F
:10C480000B40002B01D0012000E000207047002A63
:10C4900001D0816100E081627047000001480068BE
:10C4A000704700000804002070B50446002C01D13C
:10C4B000012070BD14482168086014482168086094
:10C4C0002168606848602168A0688860FFF7E6FF1F
:10C4D000054606E0FFF7E2FF401B272801D90320AD
:10C4E000E7E72068C0680028F4D120680169E068A7
:10C4F000814203D02168E068086102E004482168B5
:10C5000008600020D5E70000CCCC000055550000A5
:10C51000AAAA0000014602480A681060002070477D
:10C52000AAAA000002480068401C01490860704740
:10C530000804002010B5064800681021084304498B
:10C540000860002000F006F800F04CF8002010BD54
:10C550000020024070B586B0044600250026002267
:10C5600021460D2000F086F80D2000F077F800BF7E
:10C57000174880690121C9020843154988610846A6
:10C580008069C9140840009000BF00BF01A902A83B
:10C5900000F062FA00F082FA05460E492846FBF7E1
:10C5A000DFFD461E0C480D4908600D490B48C1606F
:10C5B000466000210161816001F0D6FB002804D1B2
:10C5C000064801F02DFC06B070BD0120FBE700001D
:10C5D0000010024040420F00002C01402C3000208F
:10C5E000E703000008B500BF154880690121084332
:10C5F0001349886108468069C007C00F009000BFDA
:10C6000000BF00BF0846C069090408430C49C8615F
:10C610000846C06909040840009000BF00BF00221E
:10C620001146501F00F026F800220321481F00F099
:10C6300021F800220321081F00F01CF808BD0000AB
:10C640000010024000BFC206D20E01219140024AF2
:10C65000116000BF7047000080E100E000BFC2062B
:10C66000D20E01219140024A116000BF70470000C4
:10C6700000E100E070B504460D4616462946204606
:10C6800004F00AFB70BD000000BF00BF00BF00BF88
:10C6900000BFBFF34F8F00BF00BF00BF0648074970
:10C6A000C86000BF00BF00BFBFF34F8F00BF00BF17
:10C6B00000BF00BF00BFFDE70400FA0500ED00E089
:10C6C00003480068FF2101310843014908607047B1
:10C6D0000070004010B5024600200E4B186880081C
:10C6E00080000346134318460A4B18600A4B1B6927
:10C6F00004242343084C2361012901D130BF02E007
:10C7000040BF20BF20BF044B1B690424A343024C3D
:10C71000236110BD0070004000ED00E0F8B5044654
:10C7200000260025012109042068084088427AD1AA
:10C7300000274B48C0690903084000280DD100BFFD
:10C740004748C06908434649C8610846C0690904AA
:10C750000840009000BF00BF012742480068FF2149
:10C7600001310840002816D13E48006808433D4981
:10C770000860FFF793FE064606E0FFF78FFE801B7A
:10C78000642801D90320F8BD36480068FF21013133
:10C7900008400028F1D03248006A0321090208400D
:10C7A0000546002D2DD060680840A84229D02C48AD
:10C7B000006A884305462A48006A012109040843A3
:10C7C000274908620846006A012109048843244970
:10C7D000086208460562E807C00F002811D0FFF77D
:10C7E0005DFE064607E0FFF759FE801B1E498842A2
:10C7F00001D90320C7E71A48006A0221084000282F
:10C80000F1D01748006A0321090288436168084390
:10C8100013490862012F05D10846C06909048843FD
:10C820000F49C86100BF2078C007C00F002807D09B
:10C830000B48006B80088000A16808430849086322
:10C84000202120680840202807D10548006B1021CE
:10C850008843E168084302490863002093E7000029
:10C8600000100240007000408813000070B50446BC
:10C870000D4600265D480068C007C00FA8420ED2D2
:10C880005A48006840084000284358490860084654
:10C890000068C007C00FA84201D0012070BD02216E
:10C8A00020680840022807D151484068F021884399
:10C8B000A16808434E4948602078C007C00F00288F
:10C8C0005FD06068012808D1494800680121490407
:10C8D0000840002815D10120E0E76068022808D14F
:10C8E00043480068012149060840002809D1012079
:10C8F000D4E73F48006802210840002801D1012008
:10C90000CCE73B48406880088000616808433849AC
:10C910004860FFF7C3FD0646606801280FD107E0B5
:10C92000FFF7BCFD801B3349884201D90320B5E7DE
:10C930002F4840680C2108400428F1D121E06068AC
:10C9400002280FD107E0FFF7A9FD801B2949884283
:10C9500001D90320A2E7264840680C210840082896
:10C96000F1D10EE007E0FFF799FD801B21498842D5
:10C9700001D9032092E71E4840680C210840002896
:10C98000F1D11A480068C007C00FA8420ED9174855
:10C9900000684008400028431449086008460068C1
:10C9A000C007C00FA84201D0012077E7042120680A
:10C9B0000840042808D10E4840680721090288432E
:10C9C000E16808430A49486000F07AF80849496874
:10C9D000F02211400909084A515CC8400749086023
:10C9E0000020FFF7B7FD002058E7000000200240BC
:10C9F000001002408813000034C501080C04002018
:10CA000010480068812108430E49086008464068C4
:10CA10000D4908400B494860084600680B4908402A
:10CA200008490860084600680121890488430549CF
:10CA3000086000204860C8620863886004480549AF
:10CA400008607047001002400CF8FFF0FFFFF6FE90
:10CA500000127A000C040020072202600A4A526881
:10CA60009207920F4260084A5268F0231A4082608F
:10CA7000054A526807231B021A40C260034A126823
:10CA8000D207D20F0A607047001002400020024017
:10CA900001480068704700000C04002000B5FFF753
:10CAA000F7FF05494968072212021140090A034AA3
:10CAB000515CC84000BD00000010024044C50108A0
:10CAC000F0B589B025A001460EC9C06805AC0EC4FA
:10CAD000089026A001460EC9C06801AC0EC404909F
:10CAE00000240026002700250020009023484468E9
:10CAF0000C20204000282AD0042802D0082825D164
:10CB000002E01F48009025E00F2080042040800CA8
:10CB100005A90D5C1948C06A0007000F01A90E5C49
:10CB20000320C003204001210904884206D1314678
:10CB30001348FBF715FB6843074605E031461048EC
:10CB4000FBF70EFB68430746009703E000BF0C4865
:10CB5000009000BF00BF009809B0F0BD02030405BB
:10CB6000060708090A0B0C0D0E0F10100102030432
:10CB700005060708090A0B0C0D0E0F1000100240E5
:10CB800000127A00F8B5044600252078C007C00FCF
:10CB9000002872D0FA4840680C21084004280CD0C4
:10CBA000F74840680840082813D1F5484068490311
:10CBB00008400121090488420BD1F1480068012195
:10CBC0004904084000286BD06068002868D1012023
:10CBD000F8BD00BF6068012807D1E948006801215D
:10CBE00009040843E649086031E0606800280ED176
:10CBF000E3480068012109048843E14908600846C8
:10CC00000068012189048843DD4908601FE06068ED
:10CC100005280ED1DA480068012189040843D84963
:10CC2000086008460068012109040843D4490860E7
:10CC30000DE0D3480068012109048843D049086009
:10CC400008460068012189048843CD49086000BF77
:10CC50006068002812D0FFF721FC054606E0FFF7C8
:10CC60001DFC401B642801D90320B1E7C4480068BB
:10CC70000121490408400028F1D011E0FFF70EFC23
:10CC8000054606E0FFF70AFC401B642801D9032093
:10CC90009EE7BB4800680121490408400028F1D103
:10CCA000022120680840022862D1B54840680C2162
:10CCB000084000280CD0B2484068084008281CD121
:10CCC000AF484068490308400121C903884214D194
:10CCD000AB48006802210840002804D0E068012821
:10CCE00001D0012074E7A6480068F8218843216933
:10CCF000C9000843A24908603AE0E068002820D053
:10CD00009F480068012108439D490860FFF7C6FB62
:10CD1000054606E0FFF7C2FB401B022801D90320AD
:10CD200056E797480068022108400028F2D094484E
:10CD30000068F82188432169C900084390490860C8
:10CD400016E08F480068400840008D490860FFF7F2
:10CD5000A5FB054606E0FFF7A1FB401B022801D911
:10CD6000032035E786480068022108400028F2D1F8
:10CD7000082120680840082831D1E069002817D030
:10CD80007F48406A012108437D494862FFF786FBDE
:10CD9000054606E0FFF782FB401B022801D903206D
:10CDA00016E77748406A022108400028F2D016E0D2
:10CDB0007348406A4008400071494862FFF76EFBC3
:10CDC000054606E0FFF76AFB401B022801D9032055
:10CDD000FEE66B48406A022108400028F2D1042197
:10CDE00020680840042871D100266548C06989067A
:10CDF000084000280DD100BF6148C0690843604960
:10CE0000C8610846C06909040840009000BF00BF1F
:10CE100001265C480068FF2101310840002816D136
:10CE200058480068084357490860FFF737FB054634
:10CE300006E0FFF733FB401B642801D90320C7E657
:10CE400050480068FF21013108400028F1D000BFA0
:10CE5000A068012806D14A48006A012108434849D0
:10CE600008622BE0A06800280CD14548006A400801
:10CE70004000434908620846006A0421884340494B
:10CE800008621BE0A06805280CD13D48006A042117
:10CE900008433B4908620846006A012108433849B3
:10CEA00008620BE03648006A4008400034490862D6
:10CEB0000846006A042188433149086200BFA0681F
:10CEC000002813D0FFF7EAFA054608E029E0FFF74B
:10CED000E5FA401B2C49884201D9032078E628480E
:10CEE000006A022108400028F1D011E0FFF7D6FACD
:10CEF000054607E0FFF7D2FA401B2349884201D9D3
:10CF0000032065E61E48006A022108400028F1D18E
:10CF1000012E05D11A48C069310788431849C861F4
:10CF200000BF10212068084010285FD160690128E7
:10CF30002CD11348406B042108431149486308462B
:10CF4000406B012108430E494863FFF7A7FA0546E5
:10CF500006E0FFF7A3FA401B022801D9032037E6B9
:10CF60000748406B022108400028F2D00448406B7B
:10CF7000F8218843A169C90008430149486335E0A5
:10CF80000010024000700040881300006069401DDE
:10CF900000280FD14E48406B042188434C49486318
:10CFA0000846406BF8218843A169C90008434849F5
:10CFB00048631BE04648406B0421084344494863EA
:10CFC0000846406B400840004863FFF767FA054693
:10CFD00006E0FFF763FA401B022801D90320F7E5BA
:10CFE0003B48406B022108400028F2D1206A00280B
:10CFF0006CD0374840680C210840082864D0206A6B
:10D00000022847D132480068012109068843304987
:10D010000860FFF743FA054606E0FFF73FFA401BBA
:10D02000022801D90320D3E52948006801214906D7
:10D0300008400028F1D100BF2548C06A000900015E
:10D04000E16A08432249C862616AA06A084320492C
:10D0500049687B22D203914308431D49486000BFC1
:10D060000846006801210906084319490860FFF7CE
:10D0700015FA054606E0FFF711FA401B022801D910
:10D080000320A5E512480068012149060840002850
:10D09000F1D01BE00E4800680121090688430C49C5
:10D0A0000860FFF7FBF9054606E0FFF7F7F9401BBC
:10D0B000022801D903208BE50548006801214906B3
:10D0C00008400028F1D101E0012081E500207FE542
:10D0D0000010024030B58BB004463548407C002833
:10D0E00003D03448007801282DD10023FF220132DB
:10D0F00001A9204600F094F80020694608714871A3
:10D100008979084614303C21FBF740F8C8B26946DB
:10D110008871002002900490059027480690002016
:10D1200007900890012008A9087100020A900022C7
:10D1300001A9204600F0A4F9002837D0FF2187314B
:10D140001EA00BF027FA0023FF22013201A920467E
:10D1500000F066F800206946087148790521FBF760
:10D1600015F881004018451D3C212846FBF70EF8B4
:10D17000C8B26946487100208871029004900590F9
:10D1800012480690002007900890012008A9087115
:10D1900000020A90002201A9204600F071F900283F
:10D1A00004D0FF21A23105A00BF0F4F90BB030BD83
:10D1B0007C2B002014020020008080802E2E2F5314
:10D1C00072632F6D61696E2E630000000000808025
:10D1D00010B5044620688068012109030840000B4F
:10D1E000002811D02068C06809110840000A0028F2
:10D1F0000AD02046FFF76EFF2068C06880210840F3
:10D20000054908432168C86001204004034948617A
:10D210000120607710BD00007FFEFFFF0004014089
:10D22000F8B506460C461F46002500200090FF205A
:10D23000013060623068C5693068406C4004400C61
:10D2400000903F2000042840000C20707F20000246
:10D250002840000A60706806400EA070012080051A
:10D260002840000CE070009860603F2000062840D5
:10D27000010E2020015540062840E0610C4828405E
:10D280006061002F11D1207803F0B6FF2070607824
:10D2900003F0B2FF6070A07803F0AEFFA070202111
:10D2A000085D03F0A9FF202108550020F8BD00000B
:10D2B00080808080F0B506460C4617460025306811
:10D2C0004068124908400546FF2000042840000C31
:10D2D000E0701F2000022840000A6070A806800E3F
:10D2E000A070072040032840400B2070002F0BD176
:10D2F000E07803F081FFE070607803F07DFF6070FC
:10D30000A07803F079FFA0700020F0BD3FFFFF0080
:10D31000F0B505460C46174600262868806A60600E
:10D32000286800694004400CA06028680068124921
:10D33000084006463F2000043040000C20707F204B
:10D3400000023040000A60707006400EA07001209C
:10D3500080053040000CE070002F0BD1207803F0E6
:10D360004BFF2070607803F047FF6070A07803F0F7
:10D3700043FFA0700020F0BD7F7F7F0010B5044602
:10D38000002C01D1012010BD607F002803D120773F
:10D39000204600F065F80220607700BFCA202168AF
:10D3A000486253202168486200BF204603F03EFFD8
:10D3B000002808D000BFFF202168486200BF042079
:10D3C00060770120DFE720688068244908402168F1
:10D3D0008860216960680843616908432168896839
:10D3E0000843216888602168E06808612068006956
:10D3F000218909040843216808612068C0688021E8
:10D4000088432168C860206880682021084000287F
:10D410000DD1204600F040FA002808D000BFFF20C0
:10D420002168486200BF042060770120ABE72068D4
:10D43000006C012189048843216808642068006C1D
:10D44000A16908432168086400BFFF202168486281
:10D4500000BF01206077002095E70000BFFF8FFF2D
:10D46000054A0168914205D10449096AD213114362
:10D47000024A11627047000000280040001002407C
:10D48000FEB504460D461646002700200190009088
:10D4900000BF207F012801D10220FEBD012020779E
:10D4A00000BF02206077002E2AD1206880684021CA
:10D4B0000840002800D002E00020E87000BFE869C2
:10D4C000002800D100E000BF287803F0A2FE03048A
:10D4D000687803F09EFE00020343A87803F099FEEB
:10D4E0000343E878000403432021485D03F091FEE4
:10D4F00000060343E86903436869034301932FE08F
:10D500002068806840210840002804D0287803F073
:10D5100073FE019002E00020E87000BFE869002877
:10D5200005D12021485D03F067FE019005E0202130
:10D53000485D03F061FE019000BF2878000469781F
:10D5400009020843A9780843E9780904084320211F
:10D55000495D09060843E969084369690843019080
:10D56000A96968680843009000BFCA202168486222
:10D5700053202168486200BF20688068FF21013184
:10D580008843216888602068C06880210840284955
:10D5900008432168C860FEF781FF074613E0FEF7E5
:10D5A0007DFFC01B7D21C90088420CD900BFFF2030
:10D5B0002168486200BF0320607700BF0020207709
:10D5C00000BF032069E72068C068C007C00F0028BB
:10D5D000E5D001982168C8610098216848642068F6
:10D5E0008068FF21013108432168886020688068D5
:10D5F000012109030843216888600E480068012161
:10D60000490408430B490860084680680121490421
:10D6100008430849886000BFFF202168486200BFB6
:10D620000120607700BF0020207700BF00BF34E7F3
:10D630007FFEFFFF00040140F8B504460D46164684
:10D64000002700BF207F012801D10220F8BD012062
:10D65000207700BF02206077002E09D16878102162
:10D660000840102804D16878EF2108400A3068701B
:10D67000002E11D1E87803F0CCFD0304687803F0A4
:10D68000C8FD00020343A87803F0C3FD03432878D4
:10D69000400303431F4612E0687803F0ADFD0746E0
:10D6A000A87803F0A9FD0746E87800046978090224
:10D6B0000843A9780843297849030843074600BF6F
:10D6C000CA202168486253202168486200BF204672
:10D6D00003F0ACFD00280CD000BFFF202168486299
:10D6E00000BF0420607700BF0020207700BF01202A
:10D6F000ACE717483840216848602068C06880213E
:10D7000088432168C860206880682021084000287C
:10D7100011D1204600F0C0F800280CD000BFFF2037
:10D720002168486200BF0420607700BF0020207796
:10D7300000BF01208AE700BFFF202168486200BFC8
:10D740000120607700BF0020207700BF00BF7DE789
:10D750003FFFFF00F8B504460D461646002700BF00
:10D76000207F012801D10220F8BD0120207700BFD1
:10D7700002206077002E1BD120688068402108407D
:10D78000002800D002E00020E87000BF287803F0F5
:10D7900040FD0304687803F03CFD00020343A878D1
:10D7A00003F037FD0343E878000403431F4618E005
:10D7B0002068806840210840002804D0287803F0C1
:10D7C0001BFD074602E00020E87000BF2878000437
:10D7D000697809020843A9780843E97809040843ED
:10D7E000074600BFCA20216848625320216848626A
:10D7F00000BF204603F01AFD00280CD000BFFF2018
:10D800002168486200BF0420607700BF00202077B5
:10D8100000BF0120A8E71F48384021680860206841
:10D820008068012189048843216888602969E86843
:10D830000843216889680843216888602068C068B7
:10D84000802188432168C8602068806820210840C2
:10D85000002811D1204600F01FF800280CD000BF8E
:10D86000FF202168486200BF0420607700BF0020CD
:10D87000207700BF012077E700BFFF2021684862C2
:10D8800000BF0120607700BF0020207700BF00BFED
:10D890006AE700007F7F7F0070B50446002520689E
:10D8A000C068A02188432168C860FEF7F7FD0546DF
:10D8B00008E0FEF7F3FD401B7D21C900884201D935
:10D8C000032070BD2068C068202108400028F0D0E7
:10D8D0000020F6E770B50446002C01D1012070BD90
:10D8E000606A002800D100BF0021A1625D20005DB8
:10D8F000002804D15C200155204600F071F8022177
:10D900005D20015520680068402188432168086037
:10D9100007210902E068884201D9002501E00125BC
:10D920002D030F210902E068884206D00721090271
:10D93000E068884201D00021A162206B002809D153
:10D9400007210902E068884202D90221216301E02F
:10D9500001212163A1686068084321690843616966
:10D96000084301225202A16911400843E1690843BA
:10D97000216A0843A16A084321680860A069000C75
:10D9800004210840616A0843616B0843E168084369
:10D990002843216848602068C06991008843216855
:10D9A000C8610020206601215D200155002096E716
:10D9B00010B504460749206888420AD10648C06964
:10D9C000091488430449C861072149030348FEF745
:10D9D000B1FB10BD003800400010024000040048B8
:10D9E00010B586B004461249206888421DD100BF98
:10D9F0001048C069091408430E49C8610846C06947
:10DA0000012189030840009000BF00BF07204003A8
:10DA10000190022002900020039003200490002037
:10DA2000059001A90448FEF731FC06B010BD0000C6
:10DA3000003800400010024000040048F0B585B0F6
:10DA400004460D4616461F4600200490039002909F
:10DA5000012001900020009007210902E06888421F
:10DA600001D8012F00D900BF00BF5C20005D012854
:10DA700002D1022005B0F0BD01215C20015500BF9C
:10DA8000FEF70CFD02905D20005D0490606803903D
:10DA9000049801280DD0FF2105310398884205D153
:10DAA000A068002802D10498042802D00220009027
:10DAB0001FE1002D03D0002E01D0002F02D1012044
:10DAC000009016E15D20005D042802D005215D2054
:10DAD0000155002020662664462007534420075342
