:020000040800F2
:10800000A06A0020458100087FFD000869DC0008A7
:108010000000000000000000000000000000000060
:108020000000000000000000000000006D170108C3
:10803000000000000000000003810008E96D010855
:108040005781000800000000D90A01085781000884
:108050005781000855A5000865A500086FA5000810
:108060000000000055A3000865A300085781000820
:1080700091980008516F0108578100080000000026
:1080800057810008616F0108716F0108196F0108BD
:108090005781000857810008578100085781000860
:1080A0005781000857810008578100085781000850
:1080B00061740108717401080348854601F0BCF938
:1080C0000048004779A20108A06A0020084B1968FF
:1080D0000868203080F30988022080F31488BFF3F9
:1080E0006F8F3FBCAE4608BC04BC62B618470000A8
:1080F00010040020EFF3108072B6704780F31088F0
:108100007047EFF309800E4B1A6820381060F0C0FA
:1081100044464D4656465F46F0C008B572B613F069
:108120001FFC62B60CBC116808681030F0C8A0468D
:10813000A946B246BB4680F309882038F0C81847E4
:10814000100400200448804704480047FEE7FEE78B
:10815000FEE7FEE7FEE7FEE7BD6E0108B980000816
:1081600030B50B46014600202022012409E00D46CF
:10817000D5409D4205D31D469540491B2546954057
:1081800040191546521E002DF1DC30BD70B500249B
:108190002546002801DA01244042002901DA0125A0
:1081A0004942FFF7DDFFAC4200D04042002C00D036
:1081B000494270BD10B5202A04DB0846203AD04061
:1081C000002110BD0B46D340D0402024A21A91407C
:1081D0000843194610BD00000048704700C501085B
:1081E00010B50446FFF7F8FF0068005DC007C00F38
:1081F00010BD01466139192900D820387047014661
:108200004139192900D82030704703460B439B079A
:1082100003D009E008C9121F08C0042AFAD203E0FB
:108220000B780370401C491C521EF9D27047D2B221
:1082300001E00270401C491EFBD270470022F6E7A5
:1082400010B513460A4604461946FFF7F0FF2046CC
:1082500010BD421E5378521C002BFBD10B781370BB
:10826000491C521C002BF9D1704730B505462A46EF
:108270000B4610781C78521C5B1C002801D0A042D1
:10828000F7D0002C03D0002802D06D1CEFE7284661
:1082900030BD10B5044605E00B780370401C002B80
:1082A00000D0491C521EF7D2204610BDCAB2401E53
:1082B0004178401C8A4202D00029F9D10020704741
:1082C000421C0178401C0029FBD1801A704710B570
:1082D000002200E0521C835C8C5CA34201D1002B85
:1082E000F8D1D8B2E1B2401A10BD10B5044600E092
:1082F000401C0378002BFBD100E0401C521E04D32D
:108300000B78491C0370002BF7D100210170204627
:1083100010BD03460A780270401C491C002AF9D19E
:108320001846704730B505460020034600E05B1C48
:10833000934205D2EC5CC85C201A01D1002CF6D126
:1083400030BD00000FB400B58DB009900B9010A99E
:1083500000200091C0430A9000200C90064806902F
:10836000064807906A4609A80F9900F0DBFE0DB099
:1083700008BC04B01847000045910008659100084A
:10838000FFB50027FF4383B000205C6801909E6822
:108390001D46A9697F1C049888470090296A884770
:1083A0000028F6D10098401C0CD0032040028443E2
:1083B000002E19DD600614D500982B2809D02D2831
:1083C0000FD103E00020C04307B0F0BD01208002C0
:1083D0000443A9697F1C04988847761E0090002EEC
:1083E00002DD0098302803D00598002825D035E01C
:1083F000012040020443A969761E7F1C0498884727
:108400000090002E03DD782805D0582803D0059869
:10841000002810D022E00598002801D010281DD196
:10842000012040028443A969761E7F1C0498884776
:108430000090102002E0082000E00A2005900DE0E6
:10844000012149020C43059A0199761E51430818EF
:108450000190A9697F1C049888470090002E05DDD3
:108460000599009800F048FE0028E9DAE9690498C7
:108470008847A00502D40120C043A5E7E00722D128
:10848000600611D56005019800D5404229680A1D93
:108490002A600968220501D5087014E0220701D579
:1084A000088010E008600EE02868011D296000685F
:1084B000210502D50199017005E02107019901D537
:1084C000018000E0016038467EE7FFB5002083B000
:1084D00000905068019091691446002697680498AE
:1084E000884705460C990698084305D009E0A1691C
:1084F000761C049888470546216A28468847002844
:10850000F5D1681C03D00198C00704D017E0002003
:10851000C04307B0F0BD2068011D216000680090D5
:108520000DE00198C00704D1009805700098401C28
:108530000090A169761C7F1E049888470546002F8D
:108540001CDD681C1AD0069800280FD0E817C00E52
:10855000401941118A0006994009511840012A1A10
:108560000968012090400142DBD107E00C98002807
:10857000D7D1216A284688470028D2D0E1690498DB
:1085800088470C98002807D1002E05DD0198C00708
:1085900002D1009800210170A068B84204DD0C9857
:1085A000002804D0002F02D00120C043B1E730469C
:1085B000AFE70000FFB5087889B01546FF2805D061
:1085C000491C2D2804D00022002407E000240BE0E1
:1085D0000122F9E70A235C430419491C0878FF28A3
:1085E000F8D1002A00D06442002004902A78014685
:1085F0002D2A01D02B2A0FD16D1C2D2A02D000224A
:10860000049209E00122FBE700260A2233466D1C92
:1086100000F012FD381871412F78FF2FF4D10C9A19
:10862000A218069202460A4304D0FF23069A913309
:10863000DA4205DA002109980A4606C00DB0F0BDFD
:108640000024B74AB54D2646079200F0C7FE0290B7
:1086500006980391002801DA474200E007463905F1
:108660000020AF4A001C51410191009012E0F80730
:1086700007D022462B463046079900F0E9FA064615
:10868000079122462B461046194600F0E1FA0446AF
:108690000D467F10002FEAD10698019B0028009A12
:1086A0000399029806DA00F03BFB3246079B00F084
:1086B00037FB05E000F0CCFA3246079B00F0C8FA21
:1086C000049A002A02D00122D2075140099A03C21B
:1086D000B4E7FFB591B0002009900025ED432E20AE
:1086E0009E685C681F460190B9696D1C12988847A6
:1086F0000090396A88470028F6D10098401C0AD0BB
:108700000D20C0018443002E12DD00982B2809D0D3
:108710002D280DD103E00020C04315B0F0BD01208D
:1087200080020443B9696D1C12988847761E009038
:1087300003A9600501D52D2000E02B206A461073A7
:10874000491C0CA80F9102900AE0B9696D1C12989F
:10875000884700900120400204431398761E05606C
:10876000002E02DD00983028EFD001990098884251
:1087700046D18020044308E00998401E099001205A
:10878000400204431399681C0860B9696D1C761E89
:108790001298884700903028EED031E00199884245
:1087A00005D1200603D480200443761E1EE00098E5
:1087B0000FF01EF9002826D001204002044307A92B
:1087C0000F980331761E88420BD200980F993038EB
:1087D00008700F98401C0F90200607D50998401E7E
:1087E00003E0200602D40998401C0990A00502D598
:1087F0001399681C0860B9696D1C1298884700902D
:10880000002ECBDC59E0002E57DD0098652801D002
:10881000452852D1A00550D5032000028443B969F0
:108820006D1C761E129888470090002E0CDD2B28B8
:1088300004D02D2808D1FF2001300443B9696D1CF4
:1088400012988847761E0090E00501D52D2100E0A2
:108850002B21029801700298401C0290019025E0A3
:108860000120400204430EA902980131761E88427D
:108870000ED20098029930380006000E087003D11D
:108880000299019881420AD90298401C029006E0A0
:10889000E00501D5234801E0224840420990B9692A
:1088A0006D1C12988847009013980560002E04DD17
:1088B00000980FF09DF80028D2D1F96912988847E6
:1088C0000F99FF200870029903AA087000200A90EF
:1088D0000B900CA90AA8099BFFF76CFEA00502D417
:1088E0000120C04319E72420044209D0E00713D136
:1088F00038680B9A0A99031D3B60006806C00BE0BC
:108900000B990A9800F038FB0146E00704D138685B
:10891000021D3A60006801602846FEE6000014402F
:108920000000F03FF1D8FFFF70B506460EF030FFB3
:10893000046805460A220021304600F077FC2C60CE
:1089400070BDF8B502464A40D40F42004B005208B1
:108950005B089A4202D20246084611464A0023D0DA
:10896000C30D4A00DDB2120EAD1A202D35DA4902D0
:108970000126490AF6058A19002C00D0524220210E
:108980004F1B1146B9402A411018C20D9A4221D0FE
:10899000002C17D0012D08DCDA05801AD20F8019BF
:1089A000D207DBB200F082FCF8BDDA05801A0123A1
:1089B00040001B06C01880185A428018CA0F104386
:1089C000490007E04908C2071143DA05801A8019F7
:1089D0004008801800F062FCF8BD61000122511AC5
:1089E000001BF7E70122D2075140AAE70122D20774
:1089F0005040A6E7024670B54A40D30FDB0740005F
:108A00002DD04A002AD0010E140E000212020919BC
:108A1000400A520A8418E50104465443000A120A27
:108A20002E045043A4194219200CC543AA18120C55
:108A30000125AD03521C521912047F39240400D0C1
:108A4000521C104301D44000491EC2B20C06C0099A
:108A50002018401C4008802A02D003E0002070BD8E
:108A600040084000002900DA0020184370BD70B5AE
:108A700002464A40D50F40004A00ED074008520820
:108A8000002814D0002A12D0C40DD30D41020120B9
:108A9000C0055202490A520AE41A091812187D3414
:108AA000914201D3641C00E04900002C01DA00204F
:108AB00070BD0023914201D3891A03434008490045
:108AC0000028F7D100290AD0914202D10121C9071B
:108AD00005E0914201D2012101E00121C943E005F5
:108AE000C018401900F0DAFB70BD0000F0B5074671
:108AF0000846584087B0C00F049048000E46590001
:108B000040084908BC1A884105D2384631461E46FD
:108B100017460B4602465800400810434CD0300D13
:108B2000039040055900400D490D0590401A0290F0
:108B3000402872DA18030121000B0905084301904F
:108B400004980092002805D00199524200208841E3
:108B500000920190029840210A1A0199009800F0B1
:108B6000A8FA05460C466B4607CB00F0B2FAC019CE
:108B70007141039A0E0D0023D71756401A467A40CA
:108B8000164344D0049A002A2DD0029A012A039A4F
:108B900015DC1205C01A914101263605001C7141F1
:108BA000D20F059ED2070093019202962A462346D1
:108BB00000F0C2FB07B0F0BD38463146FAE71605B3
:108BC000224A0F46B218C01AB74101210905001CFC
:108BD0004F4100187F41114618187941E20F1043A8
:108BE0006D19644113E0E2076D0815436408C2077C
:108BF0001443039A01261205C01A91413605001C40
:108C00007141CE07400830434908C01851412A46F7
:108C1000234600F084FBCDE7FFE7049801224000E3
:108C2000C117121A00238B4104983146C417381A11
:108C3000A141EEE730B40124E407634030BC55E7BE
:108C400030B40124E407614030BC4FE70000E0FF8E
:108C5000F0B51FB488B00B990998002448400999D1
:108C6000C00F490049080991C0070B9900904900BD
:108C700049080B9109990898A64608431CD00B99FE
:108C80000A98084318D0099801244000420D480072
:108C9000410D099824050003000B204309900B980F
:108CA0000003000B20430B9050181C494018002271
:108CB00001901446104605E0002001460DB0F0BDBD
:108CC000032801DA034600E003239C46C11A0AAEDA
:108CD0000AE05F0008ADED5B4F00F75B7D430027C6
:108CE000AA187C41491C5B1E6145F2DD410004ABC2
:108CF0005A522104120C0A43240C401C0828DFDBC2
:108D0000019802900099704601910090059B049A89
:108D10000799069800F010FBD0E700000DFCFFFF5C
:108D2000F0B50C465C4085B0E40FE40703944C00BA
:108D300000266408590094464908024602962243D8
:108D400021D062460A431ED06200570D4A000E032E
:108D50002303550D012402462C492405781B1B0BC7
:108D6000360B401823432643614600901C46501A98
:108D7000B44103D30098401C009002E09218009880
:108D80005B41002803DA0020014605B0F0BD002059
:108D9000012109050746864611E064461D46141B5D
:108DA000B54106D36546521BB341744607430C4395
:108DB000A646CD0740084908284392185B4105465E
:108DC0000D43EAD11046184313D06046194650406F
:108DD0007140084306D06046101AB34106D2012202
:108DE000002306E000220123DB0702E00122D24338
:108DF0005310009874460105381C6141029C039D84
:108E00000019694100F08BFABFE70000FD03000084
:108E1000C217C10F504010B54018CA079623002151
:108E200000F044FA10BD10B500229623114600F060
:108E30003DFA10BD0EB5C217C10F5040CA07401809
:108E40000021054B0293019200910A460B4600F067
:108E500073FA03B000BD000033040000C20F4100EC
:108E600040020123400ADB05D207090EC0187F2902
:108E700001DA00207047962903DC9623591AC8406E
:108E800001E096398840002AF4D040427047410002
:108E900040020122400AD205090E80187F2901DA1A
:108EA00000207047962903DC9622511AC84070476B
:108EB000963988407047000070B5CD0F4A0009030D
:108EC0000123090B1B0519430B4BED070024520D21
:108ED0009A4201DA002070BD074B34339A4203DC1A
:108EE0009A1AFFF767F902E00449511888402C43A9
:108EF000F1D0404270BD0000FF030000CDFBFFFF3A
:108F0000C20FD207400040080BD0C10D0723DB0180
:108F1000C91840020905400A1143C208400711431D
:108F2000704700200146704710B5002904DB01247A
:108F3000E40740428C412146002B04DB1C46012300
:108F4000DB075242A3418B4200D1824210BD000098
:108F500010B5002904DB0124E40740428C4121467E
:108F6000002B04DB1C460123DB075242A34199423C
:108F700000D1904210BD0000CB0FDB07490010B5B7
:108F8000490802460A4307D00A0D07240903E401F1
:108F9000090B121B002A01DC002010BDC900440F80
:108FA0000C43C100E018D205801800F077F910BD1D
:108FB0000122D207002800DB101A002900DB511A19
:108FC000814270470122D207002800DB101A0029D5
:108FD00000DB511A88427047F0B51FB406460020E6
:108FE00082B005464024019100901BE00199224681
:108FF0000F463046FFF7DEF8049A059B801A994128
:1090000010D310461946224600F053F8361A8F4105
:109010000197224601200021009F00F04AF83818ED
:109020004D4100902046641E0028DFDC019B009823
:109030002946324607B0F0BDF0B51FB486B0002017
:109040000090019002900698069980B204900798CB
:10905000090C02040014114307900027089D099889
:1090600006913E463C4603900398A9B20204000CC8
:10907000039004982D0C154348430021224600F02C
:1090800018F8C719714110340E46402CECDB3846F5
:10909000029A00F00EF8009A019B80180090594146
:1090A00002980191103002904028CCDB00980BB060
:1090B000F0BD10B5202A04DB0146203A9140002083
:1090C00010BD914020239C1A0346E3401943904071
:1090D00010BD10B5202A06DBCB170846203A1041F8
:1090E000C1170B4306E00B461341D0402024A21ABF
:1090F00091400843194610BD3A2800D23038202349
:1091000002469A43412A01D310463738884201D398
:109110000020C043704700000268137851180160B6
:109120001846704710B5D160044951610449116275
:1091300000211161114600F091F910BD199100084C
:10914000E18100084268002A08D001680B78491CB8
:10915000002B03D0521E06C0184670470121C16083
:10916000881E70474268002A0BD0C3680168002B34
:1091700007D183688B4204D0491E521C06C00020D0
:1091800070470020C04370470FB400B589B00CA9E8
:1091900000910B990023CB60204B214A0693079244
:1091A000042201921F4A02921F4A089202466B460D
:1091B0000020FFF78EFA09B008BC04B0184770B55C
:1091C00086B006460020C0430190002015460C469C
:1091D0000091029104903246694604A8FFF7D4FF3B
:1091E000024604982118002D05D0002801D0084619
:1091F00000E020462860049800280DD0002A02DDF7
:109200000098884208D0081B0190009432466946B5
:10921000029404A8FFF7B8FF06B070BD459100089E
:1092200065910008FFFFFF7FE1810008F7B5009C12
:109230000F4600262578641C002D05D0FEF7CCFFD4
:109240000068405DC007F5D12B2D02D02D2D18D020
:10925000641E39462046029A00F09CFA002F04D082
:109260003968A14201D100993960710502240029B1
:109270000BDA4042002803DD0EF08AFA0460A007F2
:10928000FEBD012080020643E3E70028F8DA0EF075
:109290007FFA04600048FEBDFFFFFF7F002904DA6B
:1092A000401C490001D140084000704770B40024C0
:1092B000050C05D11024000402D1002921D011246D
:1092C000050E01D100020834050F01D10001241D53
:1092D000850F01D18000A41C002801DB4000641C24
:1092E000002908D020252E1B0D46F540A14000D0B6
:1092F00001212943084301061B1B000ADB1D02D57F
:10930000002070BC7047DB05181880180029F8DAB7
:10931000401C4900F5D170BC40084000704710B5B2
:10932000002B08DA0024401C614192185B411A436B
:1093300001D14008400010BDF0B51FB482B0054611
:109340000C0003D008460EF0FFF902E00EF0FCF925
:1093500020300246009021462846FFF7AAFE049BD3
:10936000059A04460F4618431143084314D0184683
:1093700010431BD0009840210A1A18460599FEF7A1
:1093800019FF05460E46009A05990498FFF791FECD
:10939000084305D0012004E02046394607B0F0BD5F
:1093A0000020C11705430E432C43374300990E9804
:1093B0006305401A7905E40A00220C43FD0A0A30CD
:1093C00002D500200146E9E70105101969410C9C0E
:1093D0000D9D00196941FFF7A2FFDFE70EB5054AB1
:1093E00002920022009213460192FFF7A5FF03B0FC
:1093F00000BD0000330400004A0009030123090BEB
:109400001B0519430A4B10B5520D9A4202DA00208F
:10941000014610BD064B34339A4203DC9A1AFEF71C
:10942000C9FE10BD034BD218FFF743FE10BD00006C
:10943000FF030000CDFBFFFF064C0125064E05E0B3
:10944000E36807CC2B430C3C98471034B442F7D365
:10945000FEF736FEE8C8010808C90108F3B58DB06B
:1094600000200A9001200B90002608460C300C4684
:1094700009906269012109989047051E2ED0252D7B
:109480002DD0216A8847002818D0626901210998E7
:109490009047216A88470028F7D1411E62690998E0
:1094A000904700E0761CA1690D988847216A88479B
:1094B0000028F7D1E1690D988847DAE7A1690D988E
:1094C00088470746A84201D1761CD2E7E1690D988A
:1094D00088477F1C02D10A98002877D049E10027ED
:1094E00062693D463946099890472A280CD162693D
:1094F000012109989047012506E00A214F433F18B2
:10950000303FEBD410200543626901210998904750
:10951000014630390A2903D29B498F42DEDCECE751
:10952000E90600D4994F6C280AD04C2810D068283E
:1095300024D06A282ED074280CD07A280AD00DE0C6
:1095400062690121099890476C2823D004211CE00E
:10955000202005436269012109989047A760656052
:1095600065284FD026DC582839D01ADC452849D048
:1095700012DC252834D04128B0D143E062690121B2
:1095800009989047682802D008210D43E6E701209A
:10959000C002DEE70220DCE7462833D047282CD182
:1095A00030E05B2870D061282CD063286CD0642810
:1095B00023D161E06F284FD009DC662822D06728CC
:1095C00020D0692826D06E2817D12EE0CDE0702853
:1095D0004DD073286FD075284ED078280DD154E027
:1095E000A1690D9888470546252800D16CE7E169F7
:1095F0000D9888476D1C00D16DE7BAE00A224CE057
:109600000A2252E0012023466A46C0430D99FFF723
:1096100060F8A3E02846402108436060A80723467D
:1096200001D5002239E000223FE0E80700D020E722
:109630002068011D21600068290501D5067018E722
:10964000290701D5068014E7A90703D5F11706609D
:1096500041600EE706600CE7284640210843606041
:10966000A807234601D5082217E008221DE0484933
:1096700028460840606016E02846402108436060A4
:10968000A8072346BCD5B9E715E028464021084382
:109690006060A80707D5234610220120C0430D991A
:1096A000C046C0465AE0234610220120C0430D990F
:1096B000FEF766FE52E000210C910B4600916328F4
:1096C00002D05B2807D043E0E80601D40120A06067
:1096D000012000903CE062690121099890475E28D2
:1096E00005D101200C9001466269099890472169D3
:1096F000002906D10B4601AA8F00491CD351082925
:10970000FADB002835D0216900290ED1C117C90E16
:1097100009184A11930001AA9A1849094901411AE6
:10972000012013688840034313606269012109988E
:1097300090475D28E5D10C98002808D0002001ABA7
:1097400081005A58401CD2435A500828F8DB01AB1C
:1097500001202246C0430D99FEF7B7FE00280ADA21
:10976000401C06D10B98002803D00020C0430FB046
:10977000F0BD0A98FBE7E90702D10A99491C0A9152
:10978000361800200B9074E6CCCCCC0CFFFFFF7F8A
:10979000F1F7FFFFF7B582B0029C00272078641C28
:1097A00015460197302802D0002D15D015E02078FD
:1097B0000127641C782804D0582802D0002D09D035
:1097C0000BE0002D01D0102D07D1002710252078A7
:1097D000641C02E0082500E00A250026009610E03F
:1097E0000099012769430818020C294680B2714389
:1097F00000908E183804864201D301200190207811
:10980000641C2946FFF778FC0028E9DA0398002851
:1098100005D0002F01D0641E00E0029C0460019876
:10982000002806D00DF0B4FF02210160C81E05B06B
:10983000F0BD009930040843F9E770B58C1805783D
:10984000401C6B075B0F01D10378401C2A1106D125
:109850000278401C03E006780E70401C491C5B1E19
:10986000F9D12B0705D40023521E0DD40B70491CCF
:10987000FAE70378401CCB1A921C03E01D780D70A8
:10988000491C5B1C521EF9D5A142D8D3002070BDE3
:1098900010B5024802F072F810BD0000202A002026
:1098A00070B5044600688168490720D58168102694
:1098B0004907002905DA8168890702D481683143A4
:1098C000816002F089FC05460DE002F085FC401B3A
:1098D000022808D9606C30436064A06C0121084301
:1098E000A064084670BD206880684007EDD4002061
:1098F00070BD10B50146406A426C50231A420AD12D
:10990000416C01225202114341640168CA68120588
:10991000920F05D020E0C06B026B0846904710BD47
:10992000026A002A18D10A68120715D58A685307F7
:109930000122002B09DB4B680C24A3434B60416CD4
:10994000130299431143416406E0416C20231943FB
:109950004164816C1143816401F024FD10BD10B598
:10996000406A416C402211434164816C04221143DE
:10997000816402F002F810BD10B5406A01F0FCFFEE
:1099800010BDF8B50446006881688907890F012970
:1099900028D10168C90702D1C168090422D58168AC
:1099A000052211401025012601290FD181680222CC
:1099B0001143816021680320086002F00DFC074616
:1099C0000CE002F009FCC01B022807D9606C284398
:1099D0006064A06C3043A0640120F8BD20688068FA
:1099E000C007EED10020F8BDF8B504460020009075
:1099F000206881688907890F012905D10168C90795
:109A00002CD1C168090429D48168154A1026114057
:109A10000125002915D18168294381601248114927
:109A20000068FEF79DFB00E0401E00900028FBD17F
:109A300002F0D2FB07460CE002F0CEFBC01B02286E
:109A400007D9606C30436064A06C2843A064012097
:109A5000F8BD20680068C043C007EDD10020F8BD04
:109A60001700008040420F00F003002070B506464A
:109A7000124C13A12046FEF7F8FB0546002D07D037
:109A800010A00DF03DFE002012490870012070BDAD
:109A900010480078401C0F490870084600780A28D2
:109AA00009D1002008700C490C48006811F0E5FF4E
:109AB0000BA00DF025FE0020E9E70000E1040020E6
:109AC0004F4B00004154204F4B2066696E64210DBE
:109AD0000A000000DC03002001008000600200207A
:109AE0004154204552520D0A0000000070B5064650
:109AF0001C4D1DA12846FEF7B8FB0446002C2ED0B5
:109B00001AA12846FEF7B1FB0446002C27D018A165
:109B10002846FEF7AAFB002805D116A12846FEF725
:109B2000A4FB002813D014480078401C1249087088
:109B3000084600780F2812D1002008700F491048FD
:109B4000006811F09AFF0FA00DF0DAFD07E010A0F9
:109B50000DF0D6FD002008490870012070BD0020DE
:109B6000FCE70000E10400204F4B0000435351008C
:109B700039390000302C3000DD0300200200800065
:109B8000600200204353512045525220210D0A000B
:109B9000435351204F4B2066696E64210D0A00002B
:109BA00070B506460C4D0DA12846FEF75EFB044637
:109BB000002C01D0012070BD09A12846FEF755FBFD
:109BC0000446002C06D008490848006811F055FFEB
:109BD0000120F0E70020EEE7E10400204F4B0000F9
:109BE0004552524F520000000020800060020020C9
:109BF00070B50646144D15A12846FEF736FB0446FF
:109C0000002C03D1124800780A2804D10020104902
:109C10000870012070BD0FA12846FEF726FB044600
:109C2000002C0FD00A480078401C094908700846EB
:109C30000078052806D10020087008490848006807
:109C400011F01BFF0020E5E7E10400204F4B00006E
:109C5000E20300204552524F5200000000088000ED
:109C60006002002070B506460C4D0DA12846FEF797
:109C7000FCFA0446002C01D0012070BD09A1284641
:109C8000FEF7F3FA0446002C06D00849084800689D
:109C900011F0F3FE0020F0E70020EEE7E1040020E1
:109CA0004F4B00004552524F52000000000280000E
:109CB0006002002070B506460C4D0DA12846FEF747
:109CC000D4FA0446002C01D0012070BD0AA1284618
:109CD000FEF7CBFA0446002C06D009490948006873
:109CE00011F0CBFE0120F0E70020EEE7E1040020B8
:109CF000434F4E4E454354004552524F52000000D0
:109D0000001080006002002070B506460C4D0DA1C9
:109D10002846FEF7AAFA0446002C01D0012070BDA7
:109D200009A12846FEF7A1FA0446002C06D00849EE
:109D30000848006811F0A1FE0120F0E70020EEE7DE
:109D4000E10400204F4B00004552524F52000000EA
:109D5000000480006002002070B506460C4D0DA185
:109D60002846FEF782FA0446002C01D0012070BD7F
:109D70000AA12846FEF779FA0446002C06D00949C4
:109D80000948006811F079FE0120F0E70020EEE7B5
:109D9000E1040020434F4E4E454354004552524F7C
:109DA00052000000800080006002002070B506466E
:109DB000124D13A12846FEF758FA0446002C01D094
:109DC000012070BD0FA12846FEF74FFA0446002C73
:109DD00011D00E480078401C0C49087008460078E5
:109DE000052806D10020087009490A48006811F0CA
:109DF00044FE0020E5E70020E3E70000E104002046
:109E00004F4B00004552524F52000000DF0300202C
:109E1000080080006002002070B50646164D17A1AC
:109E20002846FEF722FA0446002C07D014A00DF0B5
:109E300067FC002017490870012070BD16A1284654
:109E4000FEF713FA0446002C13D012480078401C89
:109E5000104908700846007805280AD110A00DF0B6
:109E60004FFC00200B49087011491248006811F09E
:109E700004FE0020E1E70000E10400204F4B000059
:109E800051494445414354204F4B2066696E64213B
:109E90000D0A0000E10300204552524F520000001D
:109EA000514944454143542045525220210D0A0056
:109EB000000880006002002070B50646124D13A114
:109EC0002846FEF7D2F90446002C01D0012070BDCF
:109ED0000FA12846FEF7C9F90446002C11D00E4800
:109EE0000078401C0C49087008460078052806D107
:109EF0000020087009490A48006811F0BEFD0020E2
:109F0000E5E70020E3E70000E10400202E00000068
:109F10004552524F52000000E00300201000800024
:109F20006002002070B50646134D14A12846FEF7C6
:109F30009CF90446002C04D000201149087001202F
:109F400070BD10A12846FEF790F90446002C11D0F0
:109F50000B480078401C0A490870084600780A2817
:109F600006D10020087009490948006811F085FDF4
:109F70000120E5E70020E3E7E10400204F4B00006B
:109F8000DE0300204552524F5200000004008000C2
:109F90006002002070B506460C4D0DA12846FEF764
:109FA00064F90446002C01D0012070BD09A12846A7
:109FB000FEF75BF90446002C06D008490848006803
:109FC00011F05BFD0020F0E70020EEE7E104002047
:109FD0004F4B00004552524F52000000400080009D
:109FE0006002002070B506460C4D0DA12846FEF714
:109FF0003CF90446002C01D0012070BD09A128467F
:10A00000FEF733F90446002C06D0084908480068DA
:10A0100011F033FD0020F0E70020EEE7E10400201E
:10A020004F4B00004552524F52000000000180008B
:10A030006002002001460120704710B50321142062
:10A0400007F058FD10BD000010B5032200210120CB
:10A0500011F078FD0D49086008460068002802D11B
:10A060000BA00DF04DFB00220121084611F06AFD06
:10A070000E49086008460068002802D10CA00DF0C7
:10A080003FFB11F0EDFC0E49086010BD5C020020A2
:10A0900053656D6170686F726520637265617420CD
:10A0A0006661696C6564210D0A0000005802002099
:10A0B000637265617465206661696C65640D0A0090
:10A0C0006002002008B5C02210498803FEF79DF801
:10A0D00000BF0F488069012108430D498861084687
:10A0E0008069C007C00F009000BF00BF00BF0948D3
:10A0F000006880088000074908600846006803215E
:10A1000008430449086000BF08BD00000080000843
:10A110000010024000000140014600207047014647
:10A12000002070470146002070470146002070471C
:10A13000014600207047014600207047014600207C
:10A140007047000070B506460C4D0DA12846FEF77D
:10A150008CF80446002C01D0012070BD09A12846CE
:10A16000FEF783F80446002C06D00849084800682A
:10A1700011F083FC0020F0E70020EEE7E10400206E
:10A180004F4B00004552524F52000000000180002A
:10A1900060020020F8B50E4607461546042105204A
:10A1A00000F025F880210A2007F0A4FC002405E037
:10A1B000395D09200DF08CFA641CE4B2B442F7D387
:10A1C000032101200DF084FAFF24052006F016FE7D
:10A1D000641E2406240E01D04007F6D5222006F086
:10A1E0000DFE2870212006F009FE6870F8BD70B5DC
:10A1F0000C46054606F002FEA043014628460DF037
:10A2000067FA70BD10B514A11448FEF72EF8144A71
:10A210001449002803D014489060144802E0144800
:10A22000906014484861144A0020906408604860B7
:10A23000124A0A61094A886080325061104B01223B
:10A240001A70C86108620F4802700F4802700FA0B0
:10A250000DF056FA10BD00004B4500003C2B0020CD
:10A26000F42B00205C2C00200000504100006943CA
:10A270000000704100007A45802C00209A9921400E
:10A280000B0200200C0200200D0200204F4B4F4B10
:10A290004F4B0D0A00000000F0B587B007460D4691
:10A2A0000A2206A9384610F0CFF820480078A842C4
:10A2B0001AD11FA101A8FEF72CF806A901A8FDF7E5
:10A2C000C8FF1FA101A8FDF7C4FF002407E001A8F3
:10A2D000065D16486038406E0655601C84B201A8C1
:10A2E000FDF7EEFFA042F2D810484030007AA842B5
:10A2F0001AD114A101A8FEF70CF806A901A8FDF7D0
:10A30000A8FF0FA101A8FDF7A4FF002407E001A802
:10A31000065D0648483040680655601C84B201A8B6
:10A32000FDF7CEFFA042F2D807B0F0BDC802002072
:10A3300041542B514854545055524C3D000000009C
:10A340000D0A000041542B5148545450504F53545F
:10A350003D00000010B5024801F044FD10BD0000B2
:10A360006C2A002010B5024801F03CFD10BD000031
:10A370002830002010B50446006805494018142113
:10A38000FDF7EEFE800020640248E06310BD00008F
:10A39000F8FFFDBF0000024030B5056C0124AC4061
:10A3A000C56B6C60046863604368102B036803D05E
:10A3B00099600068C26030BD9A600068C16030BDBD
:10A3C0001CB508680C466A4609A1801CFDF7BAFF57
:10A3D000206801AA06A10830FDF7B4FF0099019892
:10A3E00007F06EFD0021084606F0F6F91CBD0000DE
:10A3F00025366C640000000070B504460D461A2036
:10A400000DF0FCF920601A212068FDF717FF0422E7
:10A4100029462068FDF769FF1AA12068FDF719FF9A
:10A420000222291D2068FDF760FF16A12068FDF7B4
:10A4300010FF0222A91D2068FDF757FF12A1206816
:10A44000FDF707FF0222294608312068FDF74DFF7E
:10A450000EA12068FDF7FDFE022229460A31206880
:10A46000FDF743FF09A12068FDF7F3FE022229460C
:10A470000C312068FDF739FF05A12068FDF7E9FEE2
:10A4800070BD00002D000000540000003A000000E4
:10A490002E3030315A22000070B5254C0646207807
:10A4A0000025C72804D000280AD0232E0BD011E0A5
:10A4B00020A00DF025F92570C8212248FDF7BEFE29
:10A4C000232E33D106E0022804D92570C8211D4867
:10A4D000FDF7B4FE1B4920780E54401CC0B220701A
:10A4E000012823D918A11748FDF7BFFE00281DD069
:10A4F00016A11448FDF7B9FE002806D02570C82122
:10A500001048FDF79BFE002070BD0E4E10A1304696
:10A51000FDF7ABFE002809D0811B3046891C0DF0E9
:10A5200011FEC8213046FDF789FE2570012070BD5F
:10A5300068010020696E6465785F69206F766572D6
:10A540000D0A0000301500202323000041542B0089
:10A550002A2A000010B5012001F082FD022001F03E
:10A560007FFD10BD10B5042001F07AFD10BD10B5BF
:10A570000120000301F074FD10BD000010B50C4671
:10A580000868064A06A1FDF7DDFE064A04A16068D8
:10A59000FDF7D8FE04490120087010BDBC01002061
:10A5A00025640000C0010020C401002010B503484C
:10A5B00006C803A00DF0A4F810BD0000182D00205F
:10A5C00046696E644C6F67496E6465782025642027
:10A5D00025640D0A0000000000B591B0024608A1F4
:10A5E00068460DF09DF87D210CA301220901684603
:10A5F00008F072FE012800D0002011B000BD00005C
:10A6000041542B434744434F4E543D312C22495033
:10A61000222C222573220D0A000000004F4B00005F
:10A6200008B50A480A49007902280AA0009008D013
:10A630000BA302220DA008F04FFE012800D000203D
:10A6400008BD0EA3022211A0F5E700007813002038
:10A65000881300000D0A4552524F520D0A000000A7
:10A660000D0A53485554204F4B0D0A0041542B43BB
:10A670004950534855540D0A000000000D0A444546
:10A68000414354204F4B0D0A0000000041542B5110
:10A690004944454143540D0A00000000F8B5064600
:10A6A00015480D4600797D21C900022813A01446E3
:10A6B00015A3009007D0022215A008F00DFE012876
:10A6C00004D00020F8BD022214A0F6E7002E03D02B
:10A6D00016493046FDF71DFE002D04D013492846CB
:10A6E0001131FDF716FE002C04D01049204622310E
:10A6F000FDF70FFE0120F8BD781300200D0A45522A
:10A70000524F520D0A0000000D0A4F4B0D0A000077
:10A7100041542B435354543F0D0A000041542B51D4
:10A72000495245474150503F0D0A00002112002078
:10A7300038B504460C487D210079C90002280BA0D9
:10A740000DA300900CD002220DA008F0C5FD002C36
:10A7500005D0012803D10D492046FDF7DAFD38BDAB
:10A7600002220BA0F1E70000781300200D0A4552E9
:10A77000524F520D0A0000000D0A4F4B0D0A000007
:10A7800041542B43494653520D0A000054120020F5
:10A7900041542B51494C4F4349500D0A00000000D1
:10A7A00070B50546164892B0007914460E460092E0
:10A7B000022833462A4611D012A101A80CF0B0FF9E
:10A7C00017A07D21009019A30222C90001A808F05A
:10A7D00083FD012804D0002012B070BD15A1ECE764
:10A7E00029461C48FDF795FD1A4831461130FDF702
:10A7F00090FD184821462230FDF78BFD0120EBE744
:10A800007813002041542B435354543D2225732286
:10A810002C222573222C222573220D0A0000000011
:10A820000D0A4552524F520D0A0000000D0A4F4BBF
:10A830000D0A000041542B51495245474150503DAB
:10A84000222573222C222573222C222573220D0A05
:10A85000000000002112002000B591B0024608A1BE
:10A8600068460CF05DFF7D2109A3012209016846BD
:10A8700008F032FD012800D0002011B000BD00001A
:10A8800041542B4350494E3D222573220D0A0000AE
:10A890000D0A4F4B0D0A000010B57D2104A30122C3
:10A8A000090105A008F018FD012800D0002010BD06
:10A8B0000D0A4F4B0D0A000041542B5153534C438A
:10A8C00046473D22736E69222C302C310D0A000060
:10A8D00010B57D2104A30122490105A008F0FCFC6C
:10A8E000012800D0002010BD0D0A4F4B0D0A0000BA
:10A8F00041542B43474154543D310D0A00000000A0
:10A9000008B50948094900790CA3022808A000905D
:10A9100007D002220BA008F0DFFC012800D00020A5
:10A9200008BD02220AA0F6E7781300208813000071
:10A930000D0A4552524F520D0A0000000D0A4F4BAE
:10A940000D0A000041542B43494943520D0A0000AF
:10A9500041542B51494143540D0A000010B5086879
:10A96000054A06A1FDF7EEFC05490120087005A087
:10A970000CF0C6FE10BD0000FC2B00202566000078
:10A980000C0200204F4B4F4B4F4B0D0A00000000B4
:10A99000F0B58FB00746282101A8FDF74FFC0C97B2
:10A9A0009EA10C98FDF761FC0E900E9800287BD0BC
:10A9B0009BA10C98FDF759FC0D9000200E9099A1D9
:10A9C0000C98FDF752FC0E900E980028EFD0012154
:10A9D0009648006811F051F80D980EF0E5F905461B
:10A9E000002DE4D092A128460EF0CEF90B9092A152
:10A9F0000B980EF0C9F904462069FDF761FC009040
:10AA0000024601A82169FDF700FC01A8FDF758FCEA
:10AA1000024601A900908C48FDF73BFC282101A8C3
:10AA2000FDF70CFC89A10B980EF0AEF904466069A5
:10AA3000FEF7EEF906463046FEF729FA024686A1F1
:10AA40000090814814300CF06BFE0120834908709F
:10AA50008A227D49022003F067FE81A10B980EF047
:10AA600093F904466069FEF7D3F906463046FEF7CF
:10AA70000EFA8049886480A10B980EF085F904468F
:10AA80002069FDF71DFC0090024601A82169FDF731
:10AA9000BCFB784A50327FA101A8FDF753FC282166
:10AAA00001A8FDF7CBFB00E0B6E07BA10B980EF010
:10AAB0006BF90446A2691046E169FEF75DFA0646A5
:10AAC0006C4846657AA10B980EF05EF90446206941
:10AAD000FDF7F6FB0090024601A82169FDF795FB02
:10AAE000644A58326BA101A8FDF72CFC282101A86B
:10AAF000FDF7A4FB75A10B980EF046F904462069FA
:10AB0000FDF7DEFB0090024601A82169FDF77DFB01
:10AB1000032201A957482C30FDF7BBFB282101A8CF
:10AB2000FDF78CFB01206D490870B8225149C820FF
:10AB300003F0FAFD6AA10B980EF026F9044660694D
:10AB4000FEF766F90646012189073046FEF730FA1E
:10AB50002AD166A10B980EF017F904462069FDF77B
:10AB6000AFFB0090024601A82169FDF74EFB624A47
:10AB700048A101A8FDF7E6FB282101A8FDF75EFB2F
:10AB80005EA10B980EF000F904466069FEF740F9EB
:10AB900006465948466001205C4908700822002199
:10ABA00055480CF0D7FC34E07F21C9053046FEF74C
:10ABB000FFF92ED14DA10B980EF0E6F8044620695E
:10ABC000FDF77EFB0090024601A82169FDF71DFB01
:10ABD0004F4A30A101A8FDF7B5FB282101A8FDF7D8
:10ABE0002DFB46A10B980EF0CFF804466069FEF7E6
:10ABF0000FF906463046FEF731F941B2444820309D
:10AC000001720120434908702C22010340480CF0D6
:10AC1000A1FC28460EF092F80FB0F0BD32303000A3
:10AC20007B0000005354555000000000E803002052
:10AC30006D657373616765007365727665724970DF
:10AC40004164647265737300B02A00207365727684
:10AC50006572506F72740000256400000A020020C3
:10AC60006461746155706C6F6164506572696F6482
:10AC7000000000003C2B00207761726E696E674C0B
:10AC80006F7742617474657279566F6C7461676531
:10AC900000000000256600007761726E696E674CE7
:10ACA0006F7743726564697442616C616E636500BD
:10ACB0007761726E696E674C6F77476173566F6C20
:10ACC000756D65416C61726D000000006D657465A5
:10ACD0007243757272656E63790000000B0200208A
:10ACE00073656E736F7254797065000073656E736F
:10ACF0006F72536C6F7065002002002073656E7375
:10AD00006F72496E7465726365707400280200206A
:10AD1000302D00202A02002010B510F0A1FE0149BC
:10AD2000086010BDE8030020F8B500210091142050
:10AD30000CF064FD2D49486614200CF05FFD2B4992
:10AD4000A8314860A839486E1421FDF777FA2749E1
:10AD5000A83148681421FDF771FA10200CF04EFD5F
:10AD6000044632200CF04AFD064621A00CF0C8FC37
:10AD700027A020602068FDF7A3FA81B2009132A0DD
:10AD8000A06033A0E06033A13046FDF762FA354998
:10AD90003046FDF75EFA66602DA1204607F026F9E1
:10ADA0000546124805672846FDF78AFA801E81B2DB
:10ADB0000091092168460088FFF76EFA06F038FD19
:10ADC00030460CF0E9FC20460CF0E6FC28460CF07E
:10ADD000E3FC0649486E0CF0DFFC0449A8314868E2
:10ADE0000CF0DAFC20A00CF08BFCF8BD680200200F
:10ADF0002A2A2A2A2A2A4765744D65746572536582
:10AE00007474696E67732A2A2A2A2A2A0D0A000096
:10AE100068747470733A2F2F61746565693964348E
:10AE200034382E657865637574652D6170692E659B
:10AE3000752D776573742D312E616D617A6F6E613A
:10AE400077732E636F6D2F0074657374696E672F4F
:10AE5000000000006D657465722F73657474696E0F
:10AE600067732F003C2B00202A2A2A2A2A2A656E83
:10AE700064204765744D6574657253657474696EBA
:10AE800067732A2A2A2A2A2A0D0A000030B587B0B9
:10AE90000C46054600226946124801F0D7FE002202
:10AEA00005A9104801F0B0FE684601780E486422FA
:10AEB000414368464078504309186846807808182E
:10AEC00028606846C07D7D2109014118064841433C
:10AED0006846407D504309186846807D0818206008
:10AEE00007B030BD042E00201027000030B593B00D
:10AEF00005466EA270A109A80CF012FC6FA26EA10B
:10AF00000EA80CF00DFC032209A904A80FF066FAA4
:10AF1000024669A104A80CF003FC6BA104A8FDF78C
:10AF2000D6F90124002841D068A104A8FDF7CFF983
:10AF300000287DD066A104A8FDF7C9F9002878D0C3
:10AF400064A104A8FDF7C3F9002873D062A104A886
:10AF5000FDF7BDF900286ED060A104A8FDF7B7F990
:10AF6000002869D05EA104A8FDF7B1F900287DD0C2
:10AF70005CA104A8FDF7ABF9002878D05AA104A879
:10AF8000FDF7A5F9002873D058A104A8FDF79FF993
:10AF900000286ED056A104A8FDF799F900287FD0AB
:10AFA00054A104A8FDF793F900287BD06846C4801B
:10AFB000022209AC04A80AA90FF010FA02463EA129
:10AFC00004A80CF0ADFB04A8FDF7AEFC01466846F2
:10AFD00001810422E11D04A80FF000FA024636A107
:10AFE00004A80CF09DFB04A8FDF79EFC01466846F2
:10AFF000818102220EA904A80FF0F0F902462EA1C9
:10B0000004A80CF08DFB04A8FDF78EFC01466846F1
:10B0100001800EAC022204A8E11C0FF0DFF9024609
:10B0200025A104A80CF07CFB04A8FDF77DFC04E03E
:10B0300023E024E025E026E028E001466846418040
:10B040000222A11D04A80FF0C9F902461AA104A802
:10B050000CF066FB04A8FDF767FC0146684681809A
:10B060000E2269462846FDF7D0F804E010E011E012
:10B0700012E013E014E013B030BD022013E003200F
:10B0800011E004200FE005200DE00BE006200AE0AF
:10B09000072008E0082006E0092004E00A2002E07A
:10B0A0000B2000E00C206946C88081E74E6F7620B7
:10B0B00033302032303230002573000030393A35D9
:10B0C000323A3135000000004A616E004665620088
:10B0D0004D617200417072004D6179004A756E00D9
:10B0E0004A756C0041756700536570004F637400CA
:10B0F0004E6F76004465630010B58AB00020009062
:10B1000001906C4602A8FFF7F1FE0398079068468D
:10B11000C28B08A10CF004FB02A8FFF7E7FE04981D
:10B1200008906846028C03A1801C0CF0F9FA2046B6
:10B130000AB010BD253032640000000077B587B03A
:10B1400006A905A8FFF7A2FE234D06982946044646
:10B15000FDF71CF8029064212046FDF717F80C4615
:10B160006421FDF713F86A461171D47005982946D9
:10B170000546FDF70BF8C4B26A4694706421284670
:10B18000FDF704F80D466421FDF700F8C8B26A46E1
:10B190005070EDB21570917FE1220B4612015343BE
:10B1A0006A46527F3C2672439B186A46127F9A1861
:10B1B000A1420A4907D84C433C2148432018401972
:10B1C000801A0AB070BD4C433C21484320184019F6
:10B1D0000349801A4018F4E710270000100E000001
:10B1E00080510100F8B50546044640352878002610
:10B1F000012808D001202870206881688907890FFC
:10B20000012908D101E00220F8BD0168C90738D141
:10B21000C168090435D4616CFF22013291430222D6
:10B2200011436164C1688907890F0091C168890869
:10B230008900C1602068816892071143816000F035
:10B24000CBFF07460EE000F0C7FFC01B022809D95C
:10B25000606C02218843102108436064002028703C
:10B260000120F8BD206880680028ECDB2068C168F8
:10B27000009A1143C160606C80088000401C6064CB
:10B2800004E0606C202108436064012600202870DF
:10B290003046F8BDF8B500250446403400952278C4
:10B2A000012A39D00122227003689E68760767D48C
:10B2B000384F4E68BE424DD09E6A0F78BA40164352
:10B2C0009E620123826B1B079A421FD0012A1DD068
:10B2D000022A1BD0032A19D0042A17D0052A15D018
:10B2E000062A13D0072A11D002688B6856697607A0
:10B2F000760FB3420AD05369DB08DB005361006864
:10B3000042690B7A5B075B0F1A4342610A68102A95
:10B3100004D0112A02D038E00220F8BD1E4883680C
:10B32000102A07D001229205134383600868102871
:10B3300003D02AE00122D205F6E719481749006830
:10B34000FCF70EFF0A21484300E0401E0090002851
:10B35000FBD11AE0986A0E78B2409043986209686F
:10B36000102901D0112910D10B488268102904D06E
:10B37000012189058A43826007E00121C905F9E7B7
:10B38000416C202211434164012500202070284691
:10B39000F8BD0000011000000027014040420F00EE
:10B3A000F0030020F1B586B0069800F0A9FC002655
:10B3B000FE48007800287DD1FD4800780028FAD1A9
:10B3C000FC4800780028F6D1FB4800780028F2D12C
:10B3D000FA480078012855D1F948007803282ED181
:10B3E000F8490868FDF71FFD8B21C9050390FDF79B
:10B3F0003EFB0746FDF784FDF34AF44B05910490AC
:10B40000FDF726FC0446FDF7B7FDF1490860F1A100
:10B41000F148FCF75CFF00280AD1ED480068EF49CD
:10B420000860EF48EF4908600020EF49086006E037
:10B43000E7480068ED4908600020ED490860E048F1
:10B4400000780128C7D1DF490868FDF7ECFC8B21A3
:10B45000C9050390FDF70BFB0746FDF751FDDA4ADE
:10B46000DA4B05910490FDF7F3FB0446FDF784FDEC
:10B47000D7490860DFA1D848FCF729FF002802D18E
:10B48000DD49086067E1DD480078002807D0DB4827
:10B4900000780128F6D1DA4800780328F2D1CDA14E
:10B4A000D848FCF714FF002873D1C9480068FDF79D
:10B4B00027FD00E0D2E10446D34AD44BFDF748FD16
:10B4C00068D27F21C905C2480068FDF771FD61D8C7
:10B4D000BF480068FDF714FD0446CD4ACD4BFDF78B
:10B4E00037FD15D2BA480068FDF70AFDCA4ACB4BB2
:10B4F00003910290FDF7ACFBC94ACA4B0591049039
:10B50000FDF798FB0446FDF737FDBB49086014E0E2
:10B51000AF480068FDF7F4FCC34AC44B03910290A6
:10B52000FDF796FB0446C24AC24BFDF783FB05912B
:10B530000490FDF721FDB04908600021AE48006885
:10B54000FDF740FD9ED2BC49AB480068FDF730FDD9
:10B5500098D2AA48007801281DD1B848C168A648E9
:10B560000068FDF747FA0190FDF7CAFC0446002287
:10B57000B34BFDF7D5FB0022B14B03910290FDF7D1
:10B5800067FB05910490FDF7F7FC07460BF0E4FB21
:10B590001CE036E01EE0A948C16897480068FDF746
:10B5A00029FA0190FDF7ACFC0022A54B0391029013
:10B5B000FDF7B6FB0022A34B05910490FDF748FB75
:10B5C0000446FDF7D9FC07460BF0C6FB0020864970
:10B5D0000860C0E07F21C9057D480068FDF7F2FCE6
:10B5E00006D2142080490860002083490860B2E038
:10B5F0007D480068401C7C49086000207E49086046
:10B60000A9E073480068FDF77BFC04466E4A52428D
:10B610008D4BFDF79DFC7DD2012189076C480068A8
:10B62000FDF7C6FC76D8894908687F21C905FDF772
:10B63000D9F90746FDF764FC0446854A854BFDF7BA
:10B6400073FC23D281494868FDF75AFC0446804ABE
:10B65000804BFDF769FC19D27849C868FDF750FCAA
:10B66000039102905A480068FDF74AFC019100904E
:10B670000EF040FC0446039B029AFDF7E9FA05919F
:10B680000490FDF779FC5C4908600DE06F4908689B
:10B690004F490968FDF7AEF904466C4841682046F9
:10B6A000FDF74FF9544908605448007801281BD130
:10B6B0006248C16850480068FDF79CF90190FDF7A9
:10B6C0001FFC00225E4B03910290FDF729FB002234
:10B6D0005B4B05910490FDF7BBFA0446FDF74CFC6B
:10B6E00007460BF039FB1CE05448C168424800682B
:10B6F000FDF780F90190FDF703FC04460022504B52
:10B70000FDF70EFB00224F4B03910290FDF7A0FACC
:10B71000059100E009E00490FDF72EFC07460BF0D0
:10B720001BFB00203049086015E0012189072848EB
:10B730000068FDF747FC06D214202B490860002062
:10B740002D49086007E028480068401C2649086029
:10B750000020294908604048007801287ED13B49F3
:10B7600008687F21C905FDF73DF90746FDF7C8FBCD
:10B770000446374A374BFDF7D7FB70D23349486848
:10B78000FDF7BEFB0446324A324BFDF7CDFB78D2C3
:10B790000C494868FDF747FB8B21C9050190FDF76F
:10B7A00066F90746FDF7ACFB044659E0510100205D
:10B7B00052010020530100204C020020860100208D
:10B7C00008020020582900206666666666660A4000
:10B7D0008801002031000000062C00209801002084
:10B7E0004C3749409C010020440200209001002079
:10B7F00094010020300000008C0100201C02002079
:10B800007C010020F02B002021B0726891EDE03F18
:10B8100048E17A14AE47E13F2506819543034B404A
:10B8200024287E8CB99B3B40462575029AD0414026
:10B830001361C3D32B3532400000A0415C2C0020A3
:10B8400000004E40000008409999E13F200200208E
:10B85000314514EEF032AE3E850100205FE010E08D
:10B860003C4A3D4BFDF7F4F9002201239B0703916D
:10B870000290FDF7EDF905910490FDF77DFB06467A
:10B8800041E036494868FDF7CEFA04903448016833
:10B890000498FDF7AFF80746314841683846FDF790
:10B8A00050F80590FDF72CFB04462A4A52422D4BD6
:10B8B000FDF73AFB16D229494868FDF7B4FA074666
:10B8C000274801683846FDF795F805462448416841
:10B8D0002846FDF736F8044601218907FDF78AF866
:10B8E000064610E01D494868FDF79DFA05461C48CC
:10B8F00001682846FDF77EF804461948416820464D
:10B90000FDF71FF806463046FDF7FAFA0446114ADD
:10B91000114BFDF71DFB01D21348066000261348AA
:10B920000078012810D112480078032805DA104861
:10B930000078401C0E49087009E000200C4908708E
:10B9400001200C49087002E001200A49087007B084
:10B95000F0BD00006666666666660A4058290020EB
:10B960002002002099990540F42B00201C020020A1
:10B970007C010020870100207047704770B50446A5
:10B9800000680168490702D54168490705D4016884
:10B99000090730D5416809072DD5616CC90604D463
:10B9A000616C0122520211436164C1680C250905D2
:10B9B000890F00291AD1216A002917D101680907C6
:10B9C00014D581684A070121002A08DB4268AA438E
:10B9D0004260606C0A0290430843606406E0606C59
:10B9E000202210436064A06C0843A0642046FFF747
:10B9F000D9FC206805602068016809060DD54068FB
:10BA000000060AD5606C01210904084360642046E1
:10BA100000F0D6F821688020086020680168C90617
:10BA200013D54168C90610D5616B1025012902D0D4
:10BA3000C168C90707D0A16C02221143A164056047
:10BA40002046FFF79AFF2068056070BDF8B5002515
:10BA50000446002803D0606C002802D008E00120D2
:10BA6000F8BD0020A06440210855204600F0AAF847
:10BA7000606C1022C006002870DB206881684907CE
:10BA80006CD4616C1301994302231943616481688A
:10BA90008907890F012905D10168C9070FD1C1683C
:10BAA00009040CD4C16818239943A3681943C160E1
:10BAB0002068016963688900890819430161206869
:10BAC000C1683D4B1940C160A069E1698003C903A9
:10BAD0000843216A4B031843636B012B02D00123F7
:10BAE0001B0300E000231843E36818432369022B7B
:10BAF00009D000231843236B666A5B0018430123B7
:10BB0000012E02D00AE00423F4E7002927D0616C5B
:10BB1000202631436164A16C1943A164A16A0E46D9
:10BB2000FF3EC23E02D0E66A314308432168CE6838
:10BB30000643CE600126A16B3607B14213D001291E
:10BB400011D002290FD003290DD004290BD00529CB
:10BB500009D0062907D0072905D010E028E00121E7
:10BB600009040843DAE721684E69F608F6004E61D9
:10BB700021684E69278F7F077F0F3E434E61216802
:10BB8000C9680E4E3140814207D10020A064606C2C
:10BB900080088000401C606408E0606C02218843DB
:10BBA00010436064A06C1843A06401252846F8BDCA
:10BBB000606C10436064F8E71902FEFFE7FF3F8303
:10BBC00070470000F0B5054600681D4987B08842FF
:10BBD00034D11C4881694715394381618069002649
:10BBE00038400590A020009003200190092069466C
:10BBF0000296C00600F040FA1348144C41C4A760F6
:10BC00008020266060600001E06020206661206185
:10BC10000E48083C00F034F9002803D08E210CA017
:10BC20000BF06CFD08487830816A090909018162CE
:10BC3000816A012211438162EC63656207B0F0BD45
:10BC40000024014000100240080002406C2A00203D
:10BC50002E2E2F5372632F6164632E630000000049
:10BC6000F7B5044600680025806840073DD42646A5
:10BC70004036307801280AD001273770E069012862
:10BC800007D02046FDF7B0FE050002D02EE00220CE
:10BC9000FEBD606C16490840FF2101310843606415
:10BCA0000020A0643070E16B12488862E16B12489A
:10BCB000C862E16B1148086321681C200860206895
:10BCC00041681022114341602068C1683943C16056
:10BCD0002168E06B4031029B019A00F0FDF820687A
:10BCE000816804221143816000E002252846FEBDE0
:10BCF000FEF1FFFFF3980008799900085F990008AA
:10BD0000F8B50646044640363078012807D00127AA
:10BD100037702046FDF7C4FD050002D024E0022064
:10BD2000F8BD2068C16849084900C160E06B00F0B7
:10BD30001FF8050003D0606C402108436064206850
:10BD40004168102291434160002D204602D0FDF74A
:10BD500018FE09E0FDF715FE050005D1606CFF2116
:10BD60000131884338436064002030702846F8BDB4
:10BD700001680A680E239A430A6001680A6852083B
:10BD800052000A600121036C0A469A40C36B5A6054
:10BD900020304170002101700846704770B50024C2
:10BDA000014620314A78022A03D00421816301240C
:10BDB00016E0026813680E25AB431360026813682F
:10BDC0005B085B0013600122056C1346AB40C56B3A
:10BDD0006B604A7000220A70416B002900D08847CE
:10BDE000204670BDF0B4C16B0D6801680C68042278
:10BDF000066C1346B3402B420DD063070BD50B687E
:10BE00009B0602D40B6893430B60016C8A40C16BA4
:10BE10004A60C16A19E00227B74002462F40012359
:10BE20002032002F15D0A70713D50C68A40604D420
:10BE30000C680A25AC430C605370036C02219940D6
:10BE4000C36B596000211170816A002916D0F0BCC3
:10BE500008470827B7402F4210D024070ED50C689A
:10BE60000E25AC430C60046C1946A140C46B6160A4
:10BE70008363537000211170016BE6E7F0BC7047DB
:10BE800070B5040024D00220214620310D464870B0
:10BE9000226811680F48A36801406068266918434A
:10BEA000E3683343184363691843A3691843E3699C
:10BEB0001843084310602046FEF75CFA0020A06299
:10BEC000E06220636063A06301216970287070BD27
:10BED000012070BD0FC0FFFFF8B504468C4620302E
:10BEE00001780025012909D0012606704178002734
:10BEF000012905D0077002252846F8BD0220F8BDAB
:10BF000002214170A7632068016849084900016067
:10BF100061462046FEF740FAE06A00282068016882
:10BF200002D00E22114306E00A221143016020686C
:10BF30000168042291430160206801683143016077
:10BF4000DAE731B500F048F9009C0546601C00D0E6
:10BF5000641C00F041F9401BA042FAD338BD000038
:10BF6000F0B5002358E001229A4014460A4052D00E
:10BF700006685F000325BD40AE43AC460660DD08A1
:10BF8000AD002D182E6AAE465D07EF0E0F25BD40A1
:10BF9000AE4375462E6286686546AE438660456848
:10BFA000A5434560C4686546AC43C4609D081C4C0D
:10BFB000AD002D19AF689C07260F0F24B440A4468E
:10BFC0003C400927FF06B84201D100270FE0154F7A
:10BFD000B84201D101270AE0134FB84201D102272C
:10BFE00005E0124FB84201D1032700E00527B74012
:10BFF000A74210D1AE686446A643AE600C4C2568DB
:10C0000095432560656895436560A5689543A5607F
:10C01000E5689543E5605B1C0A46DA40A3D1F0BDB4
:10C02000000001400004004800080048000C0048DF
:10C0300000040140012807D0022805D0042803D0BD
:10C0400001210903884206D103490978002902D158
:10C050000121024A11707047D2010020D101002055
:10C0600010B504494A69024202D04861FFF7E2FF75
:10C0700010BD000000040140F8B500238DE001244C
:10C080009C40A44622407DD04C68022C01D0122C4A
:10C090000CD1DC08A40027183C6A5D07ED0E0F26C2
:10C0A000AE40B4430E69AE4026433E6205685E0072
:10C0B0000324B4400F79A543BF07BF0FB7402F43F8
:10C0C00007604D68012D05D0022D03D0112D01D040
:10C0D000122D0ED18568CF68A543B7402F438760E6
:10C0E00047686546AF430D79ED06ED0F9D403D4332
:10C0F0004560C568A5438C68B4402C43C4604C6857
:10C10000E40049D5284CA56901263543A561A469F9
:10C110009D0834400094254CAD002F19BC689D0744
:10C120002E0F0F25B540AC430925ED06A84201D1DD
:10C1300000250FE01E4DA84201D101250AE01D4D4A
:10C14000A84201D1022505E01B4DA84201D10325DB
:10C1500000E00525B5402543BD60184C25684E68B4
:10C160009543F60300D51543256065684E689543F1
:10C17000B60300D515436560A5684E689543F60281
:10C1800002D500E008E01543A560E5684E689543D8
:10C19000B60200D51543E5605B1C0A681446DC4016
:10C1A00000D06CE7F8BD0000001002400000014024
:10C1B0000004004800080048000C0048000401404A
:10C1C0000069084000D001207047002A01D0816139
:10C1D00070478162704700000148006870470000A6
:10C1E000EC03002070B504000FD0216813480860EC
:10C1F00021681348086003CC41602068083C21682E
:10C200008860FFF7E9FF054608E0012070BDFFF7F1
:10C21000E3FF401B272801D9032070BD2068C068B8
:10C220000028F4D120680269E1688A4201D00161E6
:10C2300001E004490160002070BD0000CCCC00008A
:10C2400055550000AAAA00000068024901600020BC
:10C2500070470000AAAA000002480168491C01605A
:10C2600070470000EC03002010B50648016810225A
:10C2700011430160002000F007F800F041F80020B1
:10C2800010BD00000020024000B5014687B000222A
:10C290000D2000F06BF80D2000F05EF81348826965
:10C2A000C1140A43826180690840059004A9684668
:10C2B00000F0C0F900F0E0F90D49FBF751FF0E491D
:10C2C0000C4A0A600D4A401ECA604860002008619E
:10C2D0008860084601F0BAF8002802D0012007B0B3
:10C2E00000BD054801F0EEF8F9E70000001002403B
:10C2F00040420F00002C01406C300020E70300009A
:10C3000008B50F488169012211438161816911409B
:10C310000091C26901040A43C261C0690022084059
:10C3200000901146501F00F021F803210022481F01
:10C3300000F01CF803210022081F00F017F808BDC8
:10C3400000100240C106C90E012088400149086062
:10C350007047000080E100E0C106C90E012088405E
:10C36000014908607047000000E100E010B503F0EB
:10C3700007FD10BDBFF34F8F04490348C860BFF3EA
:10C380004F8F00BFFDE700000400FA0500ED00E05C
:10C390000248016882151143016070470070004037
:10C3A0000A4B1A689208920002431A60084803690F
:10C3B000042213430361012906D040BF20BF20BFE0
:10C3C000016991430161704730BFF9E70070004097
:10C3D00000ED00E0F8B505460068354CC00352D5C5
:10C3E000E0690026C00007D4E16920040143E1614F
:10C3F000E1690140012600912E480168C90510D469
:10C400000168821511430160FFF7E6FE074604E06C
:10C41000FFF7E2FEC01B642824D826480068C00548
:10C42000F6D5206A03273F02384020D0696839409A
:10C4300081421CD0206A226AB843012109040A43C0
:10C440002262226A8A4322622062C0070FD0FFF76D
:10C45000C3FE009008E0FFF7BFFE0099411A16489E
:10C46000814201D90320F8BD206A8007F3D5206AF4
:10C470006968B84308432062002E04D0E1690120B6
:10C4800000078143E1612878C00705D0206BA968C7
:10C4900080088000084320632878800605D5206B3B
:10C4A00010218843E968084320630020F8BD00009C
:10C4B000001002400070004088130000F8B50546E7
:10C4C00044480E460068C007C00FB0420AD2414837
:10C4D000016849084900314301600068C007C00F86
:10C4E000B0425CD128783C4C800705D56068F021CB
:10C4F0008843A968084360602878C0073FD068680F
:10C50000012813D02168022813D08907002946DAB0
:10C5100061688908890001436160FFF75DFE696811
:10C52000074601290DD0022917D024E0216889038C
:10C53000ECE78901EAE7FFF74FFEC11B274881427C
:10C5400017D860680007800F0128F4D117E0FFF7C3
:10C5500043FEC11B214881420BD860680007800F51
:10C560000228F4D10BE0FFF737FEC11B1B488142C4
:10C5700001D90320F8BD60680007800FF3D115488A
:10C580000168C907C90FB1420BD9016849084900C0
:10C59000314301600068C007C00FB04201D00120E4
:10C5A000F8BD2878400706D560680721090288434E
:10C5B000E9680843606000F06FF86168084A09069E
:10C5C000090F515CC840074908600020FFF75CFE76
:10C5D0000020F8BD00200240001002408813000037
:10C5E00064C40108F00300200D4801688122114352
:10C5F000016041680B4A1140416001680A4A1140DC
:10C6000001600168012292049143016000214160B0
:10C61000C1620163816006490448086070470000F8
:10C62000001002400CF8FFF0FFFFF6FE00127A0047
:10C63000F003002010B5072202600A4A53689B07E6
:10C640009B0F43605368F0242340836052680723A4
:10C650001B021A40C26004480068C007C00F08608F
:10C6600010BD000000100240002002400148006898
:10C6700070470000F003002004480549006849683D
:10C68000044A4905490F515CC8407047F003002037
:10C690000010024074C4010810B511A30FCB88B07C
:10C6A0006C460FC412A30FCB0FC415494A680C2067
:10C6B000134603401348042B0FD0082B0DD19302CF
:10C6C0001B0F6C46E45CC96A04AB0907090FD2036F
:10C6D000595C920FFBF744FD604308B010BD0000A9
:10C6E00002030405060708090A0B0C0D0E0F1010B3
:10C6F0000102030405060708090A0B0C0D0E0F10B2
:10C700000010024000127A00FEB504460078D24DB7
:10C71000C00749D068680007800F012820D06868EA
:10C720000007800F022804D16868C003800F022828
:10C7300016D0012062680004012A18D08100002A66
:10C7400001D0052A17D02A6882432A6028688843C6
:10C750002860606800281BD0FFF73EFD064613E006
:10C760002868800320D56068002876D01CE02968FE
:10C7700001432960EDE72A680A432A60F7E7FFF7DB
:10C780002BFD801B642869D828688003F7D50BE04F
:10C79000FFF722FD064604E0FFF71EFD801B64281C
:10C7A000F1D828688003F7D4207801268007002874
:10C7B0003DDA68680007800F13D068680007800FB3
:10C7C000022804D16868C003800F012809D0E068FE
:10C7D000002828681CD030432860FFF7FDFC07467E
:10C7E0000BE0286880070BD5E068012835D107E009
:10C7F000FFF7F2FCC01B0228C5D828688007F7D5D0
:10C800002868F82188432169C900084328600EE0A0
:10C81000400840002860FFF7DFFC074604E0FFF710
:10C82000DBFCC01B0228AED828688007F7D420782C
:10C83000000723D5E0690028686A10D03043686299
:10C84000FFF7CAFC074604E0FFF7C6FCC01B02283E
:10C8500099D8686A8007F7D510E0FAE0A4E04008AC
:10C8600040006862FFF7B8FC074604E0FFF7B4FC3D
:10C87000C01B022887D8686A8007F7D4207804276D
:10C880004007002860DA00200190E869C00008D461
:10C89000E969B8060143E961E969014001200091B5
:10C8A00001906E480168C90511D4016882151143D1
:10C8B0000160FFF791FC009005E0FFF78DFC009907
:10C8C000401A642870D865480068C005F5D5A0688E
:10C8D00001280AD0002801D0052810D0286A400875
:10C8E00040002862286AB84301E0286A3043286281
:10C8F000A068002812D0FFF76FFC00900AE0286AB9
:10C9000038432862F1E7FFF767FC0099411A544861
:10C91000814249D8286A8007F5D50DE0FFF75CFC15
:10C92000009006E0FFF758FC0099411A4C488142FC
:10C930003AD8286A8007F5D40198002804D0E9691C
:10C94000012000078143E9612078C00635D5606980
:10C9500001280CD0401D686B23D038436863686B96
:10C96000400840006863FFF737FC064622E0686B2A
:10C9700038436863686B30436863FFF72DFC0646F5
:10C9800004E0FFF729FC801B02285BD8686B800756
:10C99000F7D5686BF8218843A169C900084368632B
:10C9A0000BE0B8436863F4E74CE0FFF715FC801B2D
:10C9B000022847D8686B8007F7D4206A002846D041
:10C9C00069680907890F022943D001263606022823
:10C9D000286805D0B0432860FFF7FEFB044633E02B
:10C9E000B0432860FFF7F8FB074604E0FFF7F4FBCD
:10C9F000C01B022826D828688001F7D4E86AE16ABB
:10CA0000000900010843E862616AA06A0843696896
:10CA10007B22D20391430843686028683043286032
:10CA2000FFF7DAFB044604E0FFF7D6FB001B022801
:10CA300008D828688001F7D509E0FFF7CDFB001B77
:10CA4000022801D90320FEBD28688001F5D400200A
:10CA5000FEBD0120FEBD000000100240007000403D
:10CA60008813000030B58BB004463548407C002860
:10CA700003D03448007801282DD10023FF22013251
:10CA800001A9204600F088F8002069460871487125
:10CA90008979084614303C21FBF778FBC8B2694617
:10CAA000887100200290049005902748069000208D
:10CAB00007900890012008A9087100020A9000223E
:10CAC00001A9204600F05AF9002837D0FF2187310C
:10CAD0001EA00AF013FE0023FF22013201A9204606
:10CAE00000F05AF800206946087148790521FBF7E3
:10CAF0004DFB81004018451D3C212846FBF746FBB5
:10CB0000C8B269464871002088710290049005906F
:10CB100012480690002007900890012008A908718B
:10CB200000020A90002201A9204600F027F90028FF
:10CB300004D0FF21A23105A00AF0E0FD0BB030BD0A
:10CB4000BC2B002008020020008080802E2E2F5356
:10CB500072632F6D61696E2E63000000000080809B
:10CB600010B5044600688168C9040CD5C068C005CA
:10CB700009D52046FFF776FF2168C868802210405B
:10CB8000FF388238C8600120024940044861012012
:10CB9000607710BD0004014070B50C46FF210131E3
:10CBA00061620068C169406C4D0442048802800ED5
:10CBB00020706D0E65704D066D0EA5700D0C402633
:10CBC0003540E570520C62608A002546920E203591
:10CBD0002A7032060A40E2610A4A11406161002B64
:10CBE0000ED103F049FF2070607803F045FF6070BC
:10CBF000A07803F041FFA070287803F03DFF287073
:10CC0000002070BD8080808010B500680B464068B1
:10CC1000C021C94301400002000ECC04D870E40ECC
:10CC20005C708C06A40E0904490F9C701970002AD0
:10CC30000AD103F021FFD870587803F01DFF587017
:10CC4000987803F019FF9870002010BD30B50B469E
:10CC50000168896A5960016809694904490C996049
:10CC6000006804680F482146014088024D04800E88
:10CC700018706D0E49065D70490E99706102490E7B
:10CC800040242140D970002A0AD103F0F5FE187023
:10CC9000587803F0F1FE5870987803F0EDFE987024
:10CCA000002030BD7F7F7F0070B5040003D0607F1F
:10CCB000002802D006E0012070BD00202077204629
:10CCC00000F04CF8022060772168CA204862216891
:10CCD00053204862204603F0E2FEFF250426002888
:10CCE00024D1206881681C4A1140816021688868CD
:10CCF00062686369104322691A431043886021689F
:10CD0000E068086120680169228912041143016109
:10CD10002068C16880229143C160206880688006D5
:10CD200008D4204600F096F9002803D02068456218
:10CD30006677C0E72068016C012292049143016488
:10CD40002068016CA26911430164206845620120DA
:10CD50006077002070BD0000BFFF8FFF00680549AD
:10CD6000884205D10448016A0122D20311430162BD
:10CD7000704700000028004000100240F8B504464B
:10CD8000007F0B4601283ED00120207702206077EB
:10CD900020681F46002620378068002A35D04006CC
:10CDA0004AD5187803F068FE387803F065FE1878E5
:10CDB0009D78000405435878D97800020904084397
:10CDC00005433878996900060543D86905435869D1
:10CDD00005435868084300902168CA2048622168CA
:10CDE0005320486220688268FF2101318A438260B3
:10CDF0002168C86880221040FF388238C860FFF779
:10CE0000EBF9074628E00220F8BD400600D4DE70AA
:10CE1000187803F039FE0504587803F035FE000257
:10CE20000543987803F030FE0543D87800040543A5
:10CE3000387803F029FEC5E7DE70B5E7FFF7CCF9D7
:10CE4000C11B7D20C000814206D92168FF204862B5
:10CE5000032060772677F8BD2068C068C007EDD052
:10CE60002068C56121680098486420688268FF21B5
:10CE700001310A4382602068816801221203114354
:10CE8000816008480268012149040A4302608268FF
:10CE90000A4382602168FF2048620120607726777C
:10CEA0000020F8BD00040140F8B50446007F0B46A1
:10CEB000012815D001202077022060775878002AB9
:10CEC00010D003F0D9FD987803F0D6FDD8789D787E
:10CED000000405435878197800024903084316E016
:10CEE0000220F8BDC10603D5EF2108400A30587072
:10CEF000D87803F0C9FD0504587803F0C5FD000299
:10CF00000543987803F0C0FD0543187840030543B6
:10CF10002168CA204862216853204862204603F0F5
:10CF2000BEFD0026FF27002811D1104805402068CB
:10CF300045602068C16880229143C1602068806894
:10CF400080060BD4204600F085F8002806D0206823
:10CF500047620420607726770120F8BD2068476289
:10CF60000120607726770020F8BD00003FFFFF001A
:10CF7000F8B50446007F0D4601280ED00120207729
:10CF800002206077206800278068002A07D04006CA
:10CF900018D5287803F070FD15E00220F8BD400692
:10CFA00000D4EF70287803F06FFD0604687803F072
:10CFB0006BFD00020643A87803F066FD0643E8789F
:10CFC000000409E0EF702878AE7800040643687822
:10CFD000E97800020904084306432168CA20486230
:10CFE000216853204862204603F059FD00281ED1D5
:10CFF0001748064020680660206881680122920474
:10D00000914381602969E868084321688A68104370
:10D0100088602068C16880229143C1602068806870
:10D0200080060CD4204600F015F8002807D02168AF
:10D03000FF2048620420607727770120F8BD21682F
:10D04000FF2048620120607727770020F8BD0000AC
:10D050007F7F7F0070B504460068C168A0229143BD
:10D06000C160FFF7B9F87D260546F60006E0FFF738
:10D07000B3F8401BB04201D9032070BD2068C068DE
:10D080008006F4D5002070BDF8B5040007D0002656
:10D0900025464035A662687F002802D005E00120C1
:10D0A000F8BD2E77204600F063F802236B772068E6
:10D0B00001684022914301600721E068090288422B
:10D0C00001D9002201E0012212030F273F02B842DA
:10D0D00002D0884200D0A662276B002F05D188427B
:10D0E00001D9236301E001202063A16860686369BE
:10D0F00008432169194308430123A1695B021940D0
:10D100000843E1690843216A0843A16A084321688A
:10D110000860616B606AA36908431B0C0427E1681F
:10D120003B40194308432168104348602068C169A7
:10D130007A029143C1612666012068770020F8BD1C
:10D1400010B50068074988420AD10748C169012221
:10D1500092039143C161072149030448FEF700FF90
:10D1600010BD0000003800400010024000040048DC
:10D1700000B500680D4987B0884215D10C48C269D6
:10D1800009140A43C261C0690840059007204003A2
:10D19000009002200021019003200291049103904D
:10D1A00069460448FEF768FF07B000BD003800403C
:10D1B0000010024000040048FFB5044683B001207F
:10D1C000254640350090287F00270E4601280FD0C5
:10D1D00001202877FFF700F80190687F6168012837
:10D1E0000DD0CA1FFD3A08D1A168002905D102E07F
:10D1F000022007B0F0BD042801D00227FAE0002E7B
:10D200007CD005980028FBD006980028F8D0687FCD
:10D21000042801D005206877002020660599216444
:10D220000699E9800699A980A6630699E18706997F
:10D23000A187E06420650723E1681B02994202D8B8
:10D24000E888012806D920684268012109038A4339
:10D25000426005E0206841680122120311434160E9
:10D2600020680168490603D4016840221143016027
:10D27000E1686068994242D9002802D0E08F012815
:10D2800035D121683088C860E08F401EE087B61C29
:10D290002DE0009800280ED0E08F00280BD02068E9
:10D2A0008168890707D53188C160E08F401EE0871B
:10D2B0000020B61C0090E88800280ED02068816805
:10D2C000C9070AD0C068059908800598801C059098
:10D2D000E888401EE880012000900C98401C06D091
:10D2E000FEF77AFF0199411A0C9881426DD2E08FC6
:10D2F0000028CED1E8880028CBD16EE079E0002864
:10D3000002D0E08F012862D1E08F012807D921687F
:10D310003088C860E08F801EE087B61C57E0216827
:10D3200030780873E08F401EE087761C4FE000984D
:10D33000002818D0E08F002815D020688168890760
:10D3400011D5E18F012906D93188C160E08F801E97
:10D35000E087B61C05E031780173E08F401EE0875E
:10D36000761C00200090E888002824D0206881687E
:10D37000C90720D0E988012912D9C0680599088019
:10D380000598801C0590E888801EE880E8880128C0
:10D390000FD820684168012212031143416008E060
:10D3A000017B059801700598401C0590E888401E97
:10D3B000E880012000900C98401C08D0FEF70CFF7C
:10D3C0000199401A0C99884201D3032712E0E08F9B
:10D3D0000028ACD1E8880028A9D12046019A0C99F0
:10D3E00003F0A0FF002801D020202066206E002836
:10D3F00000D0012701206877002028773846F8E61A
:10D40000042204490428086902D090430861704747
:10D410001043FBE700E000E0094910B5401E8842D8
:10D4200001D9012010BD074C60610321081F02F0E3
:10D43000A7FC0020A06107202061002010BD000093
:10D44000FFFFFF0000E000E07047704770B5040088
:10D4500005D025462035687F002802D006E001204F
:10D4600070BD00202877204600F00AF80220687777
:10D47000211D206809F084FD01206877002070BD1F
:10D4800008B50C4A01680C48914202D1C2691021CA
:10D4900004E00A4A914207D1C26920210A43C261CD
:10D4A000C0690840009008BD054A9142FBD1C2699D
:10D4B0008915F3E7001000400010024000140040FE
:10D4C000002000400268D36801210B43D36000684C
:10D4D00002680A4302600020704700000168CA68C1
:10D4E00052085200CA600068016A064A114207D118
:10D4F000016A9210114203D1016849084900016094
:10D500000020704711110000704770B50446006894
:10D5100001690025C9438907002915DBC168C94392
:10D52000890711D4E91E01610120207720688069F4
:10D530008007204602D0FFF7E7FF04E000F096F8EE
:10D54000204600F094F8257720680169C94349070F
:10D5500017D4C168C943490713D40421C9430161E1
:10D5600002202077206880698005800F204602D045
:10D57000FFF7CAFF04E000F079F8204600F077F8E2
:10D58000257720680169C943090716D4C168C943D2
:10D59000090712D40821C9430161042020772068BB
:10D5A000C0698007204602D0FFF7AEFF04E000F01C
:10D5B0005DF8204600F05BF8257720680169C943D3
:10D5C000C90617D4C168C943C90613D41021C94379
:10D5D0000161082020772068C0698005800F2046FF
:10D5E00002D0FFF791FF04E000F040F8204600F081
:10D5F0003EF8257720680169C943C90708D1C16889
:10D60000C943C90704D1891E0161204600F030F8E2
:10D6100020680169C943090609D4C168C9430906DC
:10D6200005D48021C94301612046FFF70DFF206822
:10D630000169C943490609D4C168C943490605D4EB
:10D640004021C9430161204600F070F8206801695B
:10D65000C943890609D4C168C943890605D4202174
:10D66000C94301612046FFF7F0FE70BD7047704767
:10D6700010B5044620492068884201D1FEF7ECFD30
:10D680001E492068884209D11D480068401C1C4979
:10D6900008601C480068401C1A4908601A49206844
:10D6A000884227D119480078012803D0184800780B
:10D6B000012808D11748FDF795FD1748027817494A
:10D6C0001448FEF7CDFA16480068002804D0144824
:10D6D0000068401E1249086012480068401C114949
:10D6E000086011480068002804D00F480068401EF8
:10D6F0000D49086010BD0000002C014000100040E2
:10D70000780100204802002000140040860100201B
:10D7100085010020202A00208401002058290020B3
:10D72000DC010020440200205002002070477047B6
:10D73000F8B503680446D96918680D072D0F07D19D
:10D740008A0605D5820603D5204609F03CFDF8BDC2
:10D750009A68002D64D0D507ED0FFF2621360640CC
:10D760002E435DD0CE0706D0C60504D501261E6225
:10D77000E36E3343E3668F0702230426002F06DAA5
:10D78000D70704D027683B62E76E3743E7664F0749
:10D7900006D5D20704D022681662E26E1A43E2660A
:10D7A0000A0709D5202202402A4305D0236808220F
:10D7B0001A62E36E1343E366E26E002AC7D089065D
:10D7C00004D5800602D5204609F0FDFCE06E000776
:10D7D00003D42068806840061CD5204609F0CEFCA2
:10D7E00020688168490611D5816840229143816093
:10D7F000606E00280AD012494163606EFEF7CEFACF
:10D800000028A4D0606E416B8847F8BD2046FFF722
:10D810008EFFF8BD2046FFF78AFF0020E066F8BDC6
:10D820000A0605D5020603D5204609F0B5FDF8BD68
:10D830004906FCD54006FAD5204609F0AEFCF8BDF5
:10D84000E570010870B5040005D025466035687A9A
:10D85000002802D006E0012070BD0020287220467A
:10D8600000F026F824206872206801684908490001
:10D870000160204609F0E4FC0128EDD0606A002830
:10D8800002D0204609F0C0FB206841680122D20284
:10D89000914341602068816808229143816020683B
:10D8A0000168012211430160204609F012FC70BD9D
:10D8B000F0B50646284F04680025284902230320B6
:10D8C000012287B0BC4232D1CF6954042743CF61D3
:10D8D000C969214005910C216C462AC405C4092060
:10D8E0006946C006FEF7C8FB1E4C1D48206010208C
:10D8F000A560606025616561A5618020E561E060EB
:10D900002046FEF7BDFA002803D08E2116A009F0AC
:10D91000F5FE13486430816AF02291438162816A86
:10D920009022114381623466666207B0F0BD124EE8
:10D93000B442FAD1CE690124A4042643CE61C96958
:10D940002140059130216C462AC405C469460B4824
:10D95000FEF792FBE9E7000000440040001002409F
:10D960001C000240283000202E2E2F5372632F758A
:10D97000736172742E630000004800400008004884
:10D98000F0B5034660339C7A202C44D100290BD09B
:10D99000002A09D0012584682D03AC4206D106690E
:10D9A000002E03D1CE0701D00120F0BD1E7A012E3A
:10D9B00031D001261E724165014640310A834A83F7
:10D9C000FF27AC4204D10269002A12D1134A0EE0AB
:10D9D0007F22002C08D001252D07AC420AD1046912
:10D9E000002C04D03F2202E00469002C01D08A837D
:10D9F00000E08F830021C16622229A7219720168A9
:10DA00008A6832438A6000680168FF22213211432C
:10DA100001600020F0BD0220F0BD0000FF01000009
:10DA200010B504462B4884424DD12B484078C0079E
:10DA3000C00F002827D12948007A002823D00020D1
:10DA40002749096848622548C088002806D1801EF9
:10DA50002349096808612248FFF734FDFEF7BCFB43
:10DA60001D493839C8601D48017AC288093081547F
:10DA70000938C0881B4988421FDA1848C088401CF2
:10DA80001649C88019E014484078C007C00F002824
:10DA900013D0FEF7A1FB10493839C8600F48017A4E
:10DAA000C288093081540938C0880E49884204DA96
:10DAB0000A48C088401C0949C8800122074908312A
:10DAC0000448FFF75DFF0848844201D10CF0B2F929
:10DAD00010BD0000482F002010090020D8040020AD
